:100000000C9420040C9464040C9464040C94640414
:100010000C9464040C9464040C9464040C946404C0
:100020000C9464040C9464040C9439090C94DA095B
:100030000C9406190C9464040C9464040C946404E9
:100040000C9464040C9464040C9464040C94640490
:100050000C9464040C9444190C9464040C9464048B
:100060000C9464040C9464040C9464040C94640470
:100070000C9464040C9464040C9464040C94640460
:100080000C9464040C9464040C9464040C94640450
:100090000C9464040C9464040C9464040C94640440
:1000A0000C9464040C9464040C9464049D0E9D0EE2
:1000B000CB0ECB0E200F3511351135115C0F3511DC
:1000C000531053100F11351135112311F1A12900CF
:1000D0003A3B3C3D003E3F40414243444546474851
:1000E000351E1F20212223242526272D2E002A49B4
:1000F0004A4B2B141A0815171C180C12132F30001A
:10010000314C4D4EE0041607090A0B0D0E0F333427
:10011000000028000000E11D1B06190511103637EC
:1001200038000000E5005200E0E2E300002C00008F
:1001300000E7E6006500E450514F010001010101B4
:100140000001010101010101010101A601010101FB
:10015000010101010101A8AAA90001010101010198
:1001600001010101010101ADAEACAB00AF01010124
:100170000101010101010101010101010000010072
:100180000000010101B201010101010101000000B3
:10019000390001000101010000010000000101001F
:1001A0000100010101010A002530313662003A20C8
:1001B0000025303258000A722F6320303132333438
:1001C00035363738394142434445460A000A00254E
:1001D00030325800626F756E6365213A20000A0064
:1001E0002530325800206D6F64733A2000200025BE
:1001F000303258006B6579733A2000000100005ED0
:100200000312000200008602540021000098020937
:10021000002200001F033F00210200B1020900225A
:1002200002000A031500210300CA0209002203008C
:10023000DA023000030000820204010309046802AC
:10024000180203090448021E1E03460075006C00D4
:100250006C006D006F006E00740079002D00560078
:1002600031002E00300000001803620074006700A7
:100270002D006C0069006D00690074006500640069
:1002800000000403090409025400030100A032091C
:100290000400000103010100092111010001223FB6
:1002A000000705810308000A090402000103000099
:1002B0000009211101000122150007058303200018
:1002C00001090403000103000000092111010001DC
:1002D0002230000705840308000A05010980A101F6
:1002E0008502150125B7190129B7751095018100FF
:1002F000C0050C0901A10185031501269C02190105
:100300002A9C02751095018100C00631FF0974A175
:10031000537508150026FF00952009758102C00558
:10032000010906A10175019508050719E029E715DE
:100330000025018102950175088103950575010568
:100340000819012905910295017503910395067518
:1003500008150025FF0507190029FF8100C01201BB
:10036000000200000020EDFE6060010001020001BB
:1003700001C1020001C12601C10600000A002530AA
:10038000325820006B6579626F6172645F726570CC
:100390006F72743A20000A0025303258006B65797C
:1003A000626F6172645F7365745F6C65643A2000AC
:1003B000646F6E652E0A00626F6F676D61676963B7
:1003C000207363616E3A202E2E2E20003F00433EA4
:1003D00020004C25640A000A092D20436F6E736FBC
:1003E0006C65202D0A4553432F713A097175697464
:1003F0000A000A092D204D61676963202D0A643ABD
:100400000964656275670A783A09646562756720F0
:100410006D61747269780A6B3A0964656275672068
:100420006B6579626F6172640A6D3A096465627521
:1004300067206D6F7573650A763A09766572736920
:100440006F6E0A733A097374617475730A633A09BB
:10045000636F6E736F6C65206D6F64650A302D3449
:100460003A096C61796572302D34284631302D4659
:1004700034290A506175733A09626F6F746C6F6149
:100480006465720A653A09656570726F6D0A000AE3
:10049000002575002E6E6B726F3A20000A002575DC
:1004A000002E737761705F6261636B736C61736858
:1004B0005F6261636B73706163653A20000A0025B7
:1004C00075002E737761705F67726176655F657323
:1004D000633A20000A002575002E6E6F5F6775690C
:1004E0003A20000A002575002E737761705F7261F3
:1004F0006C745F726775693A20000A002575002EDA
:10050000737761705F6C616C745F6C6775693A20BA
:10051000000A002575002E636170736C6F636B5F5A
:10052000746F5F636F6E74726F6C3A20000A0025FF
:1005300075002E737761705F636F6E74726F6C5F9E
:10054000636170736C6F636B3A20000A0025303270
:1005500058006B65796D61705F636F6E6669672EB9
:100560007261773A20000A002575002E6D6F757351
:10057000653A20000A002575002E6B6579626F616F
:1005800072643A20000A002575002E6D617472694C
:10059000783A20000A002575002E656E61626C6550
:1005A0003A20000A00253032580064656275675FA2
:1005B000636F6E6669672E7261773A20000A0025C4
:1005C000750064656661756C745F6C617965723A1B
:1005D00020003F007573625F6B6579626F617264C2
:1005E0005F69646C655F636F756E743A2025580AA5
:1005F000007573625F6B6579626F6172645F6C65D1
:1006000064733A2025580A005544494E543A20252F
:10061000580A00554449454E3A2025580A00554489
:10062000434F4E3A2025580A0074696D65725F6326
:100630006F756E743A202530346C580A006B6579FA
:10064000626F6172645F69646C653A2025580A00C4
:100650006B6579626F6172645F70726F746F636FE4
:100660006C3A2025580A00686F73745F6B65796275
:100670006F6172645F6C65647328293A2025580A9B
:10068000000A092D20537461747573202D0A0047E8
:1006900043433A20342E382E31204156522D4C49B6
:1006A00042433A20312E382E3073766E2041565216
:1006B0005F415243483A20617672350A004F5054E8
:1006C000494F4E533A20504A524320424F4F544DC7
:1006D000414749432045585452414B455920434FC7
:1006E0004E534F4C4520434F4D4D414E4420424FB9
:1006F0004F544C4F414445525F53495A450A0042BA
:1007000055494C443A20656430343333332D6469A1
:10071000727479202831333A32303A3431204E6FB6
:10072000762032392032303135290A005649443A90
:1007300020307846454544286274672D6C696D69A0
:1007400074656429205049443A2030783630363078
:100750002846756C6C6D6F6E74792D56312E30296C
:10076000205645523A203078303030310A00444526
:1007700053433A204120627269676874206F726146
:100780006E67652073637261746368206275696C5B
:100790007420414E534920313034206B6579626FAB
:1007A0006172640A000A092D2056657273696F6EC2
:1007B000202D0A000A6D6F7573653A206F66660A10
:1007C000000A6D6F7573653A206F6E0A000A6B65DB
:1007D00079626F6172643A206F66660A000A6B651F
:1007E00079626F6172643A206F6E0A000A6D6174FB
:1007F0007269783A206F66660A000A6D61747269E0
:10080000783A206F6E0A000A64656275673A206F55
:100810006E0A000A64656275673A206F66660A00B0
:100820000A0A626F6F746C6F616465722E2E2E20DF
:1008300000433E20006565636F6E6669673A0A0093
:1008400011241FBECFEFDAE0DEBFCDBF04B603FE3A
:1008500024C08091BC019091BD01A091BE01B091D6
:10086000BF018730904BA740B04BB9F41092BC0148
:100870001092BD011092BE011092BF0114BE84B748
:10088000877F84BF88E10FB6F89480936000109250
:1008900060000FBEE0E0F8E3099511E0A0E0B1E0F0
:1008A000E6EEFCE302C005900D92A031B107D9F746
:1008B00021E0A0E1B1E001C01D92AC3BB207E1F73D
:1008C0000E94F0070C94711E0C940000FF93EF93AC
:1008D000E0911001F0911101309709F00995EF9125
:1008E000FF910895FC018591803011F0EFDFFBCF7F
:1008F0000895FF27E0E230E247FF0CC0419597FFE3
:1009000009C0EDE26095709580959095611D711D0F
:10091000811D911D27FF02C0219530E350E2AA27D7
:10092000660F771F881F991FAA1FA41710F0A41B1A
:1009300063955A95A9F7AA3008F0A95FA05DAF9317
:10094000F395611571058105910541F7ED3211F4BB
:10095000EF93F395F21718F43F93F395FBCF8F9134
:10096000B5DFFA95E1F70895E991F9918591803025
:1009700021F0853219F0AADFF9CF089520E0E8943C
:1009800055915532C1F3503311F4689455915A334F
:1009900048F4505390F3220F022E220F220F200D05
:1009A000250FF4CF0EF4219589919991533619F3BF
:1009B000533729F1533559F1BC0188279927E89419
:1009C0005C3621F48991999168945591543639F4A3
:1009D00046EF7EF077FF0DC08FEF9FEF0AC05537CF
:1009E0004AE039F0583540E121F0523642E009F052
:1009F0000895FF93EF937DDFEF91FF91B7CFFF93C2
:100A0000EF93FC0181918030B9F360DFFBCFFF935E
:100A1000EF9368DFF1CFDF93CF93CDB7DEB72596A5
:100A2000A3DFCF91DF91089592E1799FF001112426
:100A30009CE6899FE00DF11D1124E60FF11DE253A4
:100A4000FF4F84910895E82FF0E0EE0FFF1FE45B65
:100A5000F04085919491089580B38C7080BB81B3F0
:100A60008C7081BB08950E942C0584B114B885B1A7
:100A70009FEF95B987B18F7387B988B1806C88B9BA
:100A80008AB11AB88BB19BB9EAE2F1E0A2E1B1E018
:100A900011921192119211921D921D921D921D920E
:100AA00081E0E234F807A1F708952F923F924F9228
:100AB0005F926F927F928F929F92AF92BF92CF92EE
:100AC000DF92EF92FF920F931F93CF93DF93CDB7F7
:100AD000DEB7E1970FB6F894DEBF0FBECDBF62E17F
:100AE000262E61E0362E19AA29A92330A1F028F478
:100AF000213059F0223061F005C039A9343071F04D
:100B0000353079F0809A88980EC0819A89980BC008
:100B1000849A8C9808C0859A8D9805C0869A8E987C
:100B200002C0879A8F9840EA4A95F1F7189B04C053
:100B300080E090E0DC0104C080E090E0A2E0B0E062
:100B4000199B05C019821A821B821C8208C0412C85
:100B5000512C3201639449825A826B827C821A9BA7
:100B600005C01D821E821F82188609C0C12C40E864
:100B7000D42EE12CF12CCD82DE82EF82F8861B9BF5
:100B800005C019861A861B861C8608C020E030E442
:100B900040E050E029873A874B875C87C3B0DD246B
:100BA000C7FCD094ED2CFD2CC094D094E094F0942C
:100BB000CC24F7FCC394DD24EE24FF243DE0CC0CD0
:100BC000DD1CEE1CFF1C3A95D1F7489B05C01D8625
:100BD0001E861F86188A09C0412C00E1502E612C08
:100BE000712C4D865E866F86788A499B05C0198A6E
:100BF0001A8A1B8A1C8A08C020E038E040E050E0D6
:100C0000298B3A8B4B8B5C8B4A9B05C01D8A1E8AB5
:100C10001F8A188E09C0412C14E0512E612C712CB2
:100C20004D8A5E8A6F8A788E4B9B05C0198E1A8E0C
:100C30001B8E1C8E08C020E032E040E050E0298F7F
:100C40003A8F4B8F5C8F1C9B05C01D8E1E8E1F8E96
:100C500018A208C0412C512C320153944D8E5E8E47
:100C60006F8E78A21D9B05C019A21AA21BA21CA2FE
:100C700008C020E830E040E050E029A33AA34BA3AD
:100C80005CA31E9B05C01DA21EA21FA218A609C020
:100C9000E0E44E2E512C612C712C4DA25EA26FA26D
:100CA00078A64C9B05C019A61AA61BA61CA608C0B0
:100CB00020E230E040E050E029A73AA74BA75CA72C
:100CC0004E9B05C01DA61EA61FA618AA09C070E14E
:100CD000472E512C612C712C4DA65EA66FA678AACA
:100CE00009B1112707FD1095212F312F009510957F
:100CF00020953095002737FD0395112722273327AC
:100D000063E0000F111F221F331F6A95D1F74D9B1F
:100D100004C0812C912C540105C044E0842E912CF8
:100D2000A12CB12C46B1552747FD5095652F752F45
:100D30004095509560957095442777FD43955527CC
:100D400066277727440F551F661F771FE6B1E6FB1E
:100D5000EE27E0F9F1E0EF278E2B49805A806B8077
:100D60007C8084299529A629B7294D805E806F80D3
:100D7000788484299529A629B72949845A846B84C3
:100D80007C8484299529A629B7298C299D29AE29F7
:100D9000BF29CD84DE84EF84F8888C299D29AE2973
:100DA000BF2949885A886B887C8884299529A62977
:100DB000B729CD88DE88EF88F88C8C299D29AE294B
:100DC000BF29498C5A8C6B8C7C8C84299529A62947
:100DD000B729CD8CDE8CEF8CF8A08C299D29AE290B
:100DE000BF2949A05AA06BA07CA084299529A629D7
:100DF000B729CDA0DEA0EFA0F8A48C299D29AE29AB
:100E0000BF2949A45AA46BA47CA484299529A629A6
:100E1000B729CDA4DEA4EFA4F8A88C299D29AE297A
:100E2000BF29802B912BA22BB32B88299929AA2982
:100E3000BB29842B952BA62BB72BF1014081518127
:100E400062817381481759076A077B0769F18083BC
:100E50009183A283B38380910001882311F1809153
:100E6000B40180FF04C084ED91E00E94720480917F
:100E7000B40180FF0EC0809100011F928F938FEC10
:100E800091E09F938F930E940B050F900F900F900E
:100E90000F908091B40180FF04C08DEC91E00E941E
:100EA000720485E0809300010E942C0529A92F5F20
:100EB00029AB34E0230E311C263009F015CE809189
:100EC00000018823F1F0815080930001882339F0DC
:100ED0008FE99FE00197F1F700C0000012C02AE2FD
:100EE00031E0E2E1F1E04191519161917191D901DB
:100EF0004D935D936D937D939D01B1E0EA32FB07C5
:100F000091F781E0E1960FB6F894DEBF0FBECDBF3A
:100F1000DF91CF911F910F91FF90EF90DF90CF90D5
:100F2000BF90AF909F908F907F906F905F904F9009
:100F30003F902F90089594E0899FF0011124E65D81
:100F4000FE4F60817181828193810895CF92DF92FB
:100F5000EF92FF920F931F93CF93DF9386EB91E075
:100F60000E9472047AE2E72E71E0F72EC0E0D0E032
:100F7000E1EBCE2EE1E0DE2E08EA11E0DF93CF9325
:100F8000DF92CF920E940B058EEA91E00E947204DC
:100F9000F70181919191A191B1917F010E94AF18C8
:100FA0009F938F931F930F930E940B0586EA91E006
:100FB0000E94720421968DB79EB708960FB6F894DA
:100FC0009EBF0FBE8DBFC630D105C1F6DF91CF9158
:100FD0001F910F91FF90EF90DF90CF9008950895AB
:100FE00080E880936100109261000E94460C0E948C
:100FF0000B090E9424098823E1F38DEB98E00E94FD
:1010000098180E94480C0E9425080E94C30B8091EA
:101010004801882369F00E94C918809149018823FA
:10102000B1F30E94ED18882391F30E942F09EFCFAE
:101030000E94760CECCF80914201089508950C94A3
:10104000BB0B0C94BF0B0C94760881E091E00895E3
:10105000EF92FF920F931F93CF93DF938C018091B8
:10106000B40182FF3CC084EF91E00E947204C0E0B2
:10107000D0E08FEEE82E81E0F82EF801EC0FFD1F96
:1010800082811F928F93FF92EF920E940B058DEE4B
:1010900091E00E94720421960F900F900F900F9094
:1010A000C630D10551F785EE91E00E947204F80137
:1010B00080811F928F9380EE91E09F938F930E9487
:1010C0000B050F900F900F900F908EED91E0DF9138
:1010D000CF911F910F91FF90EF900C947204DF91CC
:1010E000CF911F910F91FF90EF900895FF920F9372
:1010F0001F93CF93DF931F92CDB7DEB7F82E99835E
:101100000E9424099981882381F12FB7F89481E006
:101110008093E9000091E4000E5C11E08091E8000A
:1011200085FD10C02FBF99830E94240999818823CF
:10113000E1F08091E4008017C1F02FB7F89410938C
:10114000E900ECCFEF2DF92F38E081918093F10089
:101150003150D9F78AE38093E8002FBF1092430102
:101160008F2D0E94280880E001C08FEF0F90DF9143
:10117000CF911F910F91FF9008951F93CF93DF930D
:10118000D82F0E942409882371F09FB7F89483E038
:101190008093E90080914401882349F08091E80020
:1011A00085FD03C09FBF8FEF2DC010924401C091F9
:1011B000E400CC5F13E08091E80085FD12C09FBF82
:1011C0008091E4008C1304C081E080934401EBCF54
:1011D0000E942409882339F39FB7F8941093E900FB
:1011E000EACFD093F1008091E80085FD06C08AE344
:1011F0008093E8001092450103C082E0809345018E
:101200009FBF80E0DF91CF911F9108958091E8000A
:1012100080FFFCCF089581E08093D70080EA80931F
:10122000D80082E189BD09B400FEFDCF80E980933A
:10123000D8001092E00010924701109248018DE111
:101240008093E2007894089580914701882329F0E3
:101250008091480191E08927089580E00895809168
:10126000E00082608093E0008091E00081FDFCCF8F
:1012700008951F920F920FB60F9211242F933F9350
:101280004F935F936F937F938F939F93AF93BF938E
:10129000CF93EF93FF93C091E1001092E100C0FF64
:1012A00015C08091E20080FF11C080914701882322
:1012B00069F08091E2008E7F8093E2008091E200ED
:1012C00080618093E20081E080934801C4FF16C0F2
:1012D0008091E20084FF12C080914701882371F061
:1012E0000E9404198091E20081608093E200809165
:1012F000E2008F7E8093E20010924801C3FF0FC08E
:101300001092E90081E08093EB001092EC0082E201
:101310008093ED0088E08093F00010924701C2FFB7
:1013200037C080914701882399F180914501882336
:1013300091F081508093450181110DC083E080932D
:10134000E9008091E80085FF03C01092F100F9CF19
:101350008AE38093E80080910B018823C9F0809193
:1013600046018F5F80934601837091F481E0809302
:10137000E9008091E80085FF0BC0809143018F5FF9
:101380008093430190910B01891302C01092430195
:10139000FF91EF91CF91BF91AF919F918F917F91ED
:1013A0006F915F914F913F912F910F900FBE0F90D2
:1013B0001F9018951F920F920FB60F921124EF9263
:1013C000FF920F931F932F933F934F935F936F93CE
:1013D0007F938F939F93AF93BF93EF93FF93CF939D
:1013E000DF931F92CDB7DEB71092E9008091E8003D
:1013F00083FF6CC19091F1008091F1003091F10078
:101400002091F100E32EF12CF22A0091F1002091BD
:10141000F10010E0122B2091F1004091F10030E03A
:10142000342B42EF4093E800863009F044C06BE073
:101430008BEF91E0FC01459154914E155F0539F415
:10144000FC013296459154914017510721F00796BF
:10145000615081F73BC1FC01349645915491FC01E8
:10146000369684912F3F310519F010F02FEF30E0C0
:10147000281708F4822F3EEF9091E800292F25705D
:10148000D9F392FD26C1982F813208F090E2FA013B
:10149000292F222331F064916093F100215031967D
:1014A000F8CF490F511D891B3093E8008111E4CF1B
:1014B000903211F30EC1853051F48EEF8093E80025
:1014C0000E9406098E2D80688093E30002C1893056
:1014D00059F591114BC0E09247018EEF8093E800DF
:1014E00041E080E793E051E04093E9009C012F5FE9
:1014F0003F4FFC016491662371F05093EB00F901BA
:1015000024912093EC009C012D5F3F4F31968491F4
:101510008093ED0002C01092EB004F5F473011F056
:10152000C901E2CF8EE744C0883041F4903809F019
:1015300052C00E940609809147017EC0811116C0E9
:1015400099830E9406099981923851F40093E90029
:101550008091EB0085FB882780F91092E90001C09B
:1015600080E08093F1001092F10087C0482F4D7FFA
:10157000413089F5923009F5EF2809F082C0402FFB
:101580004F775FEF540F563008F07BC09EEF90937B
:10159000E8004093E900833009F498C089E1809322
:1015A000EB0081E090E0042E01C0880F0A94EAF776
:1015B0008093EA001092EA008CC091110CC0EA946A
:1015C000EF2809F05EC0833019F44093490155C0FB
:1015D0001092490152C00115110509F055C0913A08
:1015E00071F58130D9F40E940609E0910D01F09166
:1015F0000E0180818093F1001092F10080E090E074
:10160000E0910D01F0910E01E80FF91F2281209366
:10161000F10001968630910599F72FC0823029F4A8
:101620000E94060980910B0107C0833009F04EC06B
:101630000E94060980910C018093F1001EC0913236
:1016400009F044C0893061F48091E80082FFFCCF4A
:101650008091F100809342018BEF8093E8000DC0F0
:101660008A3029F4F0920B011092430106C08B30AE
:1016700069F5E0920C010E9452118EEF8093E80010
:1016800028C00115110511F102301105F9F481305E
:10169000E9F4913AD9F43EEF8091E800982F9570E3
:1016A000D9F382FD16C0822F213208F080E2982FF4
:1016B000992321F01092F1009150FACF281B30931A
:1016C000E8002111E9CF803239F303C081E2809331
:1016D000EB000F90DF91CF91FF91EF91BF91AF9110
:1016E0009F918F917F916F915F914F913F912F913A
:1016F0001F910F91FF90EF900F900FBE0F901F90D2
:101700001895FF920F931F93CF93DF93D82F8B01E0
:101710000E942409811102C08FEF27C09FB7F8945F
:1017200084E08093E900C091E400CE5C84E0F82E70
:101730008091E80085FD0EC09FBF0E942409882388
:1017400059F38091E4008C1739F39FB7F894F09225
:10175000E900EECFD093F1000093F1001093F10077
:101760008AE38093E8009FBF80E0DF91CF911F91D3
:101770000F91FF900895BC0183E00C94810BBC0194
:1017800082E00C94810B90934F0180934E01089559
:10179000E0914E01F0914F01309721F00190F081DE
:1017A000E02D099480E00895FF920F931F93CF934B
:1017B000DF938C01E0914E01F0914F01309799F148
:1017C0000280F381E02D09958091B40182FF2BC046
:1017D00080FF04C084E893E00E947204E80188E07E
:1017E000F82E0EE713E08091B40180FF0BC08881D2
:1017F0001F928F931F930F930E940B050F900F90D2
:101800000F900F90FA942196F110EDCF8091B401D2
:1018100080FF09C08CE793E0DF91CF911F910F917A
:10182000FF900C947204DF91CF911F910F91FF9064
:10183000089520914C0130914D018217930771F06A
:1018400090934D0180934C01E0914E01F0914F0136
:10185000309721F00680F781E02D099408952091BA
:101860004A0130914B018217930771F090934B011D
:1018700080934A01E0914E01F0914F01309721F0A1
:101880000084F185E02D0994089508950C94450C89
:101890000E942F190E9433050C94D519CF93C82F9D
:1018A0008091B40182FF1EC080FF04C08DE993E0E7
:1018B0000E9472048091B40180FF0CC01F92CF93EC
:1018C00028E933E03F932F930E940B050F900F9070
:1018D0000F900F908091B40180FF04C086E993E0DF
:1018E0000E9472048C2FCF910C94EF074F925F925D
:1018F0006F927F929F92AF92BF92CF92DF92EF92C0
:10190000FF920F931F93CF93DF93CDB7DEB72E9740
:101910000FB6F894DEBF0FBECDBF0E94550531E56E
:10192000A32E31E0B32E00E010E0902E802F0E9415
:101930009B07F501C190D190E190F1905F01C6261F
:10194000D726E826F926C114D104E104F104B1F444
:101950000F5F1F4F0630110541F78FEF89838A8390
:101960001B820E9438198160782F9D838C83498166
:101970005A816B818D810E94530D5EC02091B4010C
:1019800021FF0AC06B877C878D879E870E94A607F0
:101990009E858D857C856B8520E030E0422F260179
:1019A0003701022E04C076946794579447940A94A2
:1019B000D2F740FE3AC02E839F82C12CD12C7601F3
:1019C000C39404C0CC0CDD1CEE1CFF1C4A95D2F75E
:1019D000DC01CB018C219D21AE21BF2121E0892B8F
:1019E0008A2B8B2B09F420E028870E94381981600C
:1019F000782F9A8789874E815F8168858A850E94C2
:101A0000530DF801EE0FFF1FEE0FFF1FEF5AFE4FB1
:101A100080819181A281B3818C259D25AE25BF2532
:101A200080839183A283B38307C02F5F3F4F22310E
:101A3000310509F0B3CF8CCF109150010E94C80B33
:101A40001817D9F00E94C80B809350012E960FB63C
:101A5000F894DEBF0FBECDBFDF91CF911F910F91E4
:101A6000FF90EF90DF90CF90BF90AF909F907F90CE
:101A70006F905F904F900C944E0C2E960FB6F8948A
:101A8000DEBF0FBECDBFDF91CF911F910F91FF90B1
:101A9000EF90DF90CF90BF90AF909F907F906F902E
:101AA0005F904F900895CF93DF93CDB7DEB72B971C
:101AB0000FB6F894DEBF0FBECDBF4F83588769873E
:101AC0007A878B87DE01119686E0FD0111928A9557
:101AD000E9F785E0FE01379601900D928A95E1F7CE
:101AE00049815A816B817C818D819E810E941E1467
:101AF0002B960FB6F894DEBF0FBECDBFDF91CF910E
:101B00000895CF93C82F882309F498C08CEF8C0FC9
:101B1000813A48F48C2F0E94EE1D81118FC08C2FCA
:101B20000E94BB160CC080E28C0F883058F4C7703E
:101B300081E001C0880FCA95EAF70E94FD16CF9197
:101B40000C9436178BE58C0F833078F4C53A29F066
:101B5000C63A31F482E890E005C081E890E002C026
:101B600083E890E0CF910C94190C88E58C0F8331B9
:101B700008F064C0C83A39F1C93A41F1CA3A49F1AA
:101B8000CB3A51F1CC3A59F1CD3A61F1C03B69F110
:101B9000CE3A71F1CF3A79F1C13B81F1C23B89F183
:101BA000C33B91F1C43B99F1C53BA1F1C63BA9F1FF
:101BB000C73BB1F1C83BB9F1C93BC1F1CA3BC9F55B
:101BC0008AE292E038C082EE90E035C089EE90E083
:101BD00032C08AEE90E02FC085EB90E02CC086EBFF
:101BE00090E029C087EB90E026C08CEC90E023C009
:101BF0008DEC90E020C083E891E01DC08AE891E080
:101C00001AC082E991E017C084E991E014C081E232
:101C100092E011C083E292E00EC084E292E00BC039
:101C200085E292E008C086E292E005C087E292E099
:101C300002C080E090E0CF910C942F0CCF910895DA
:101C4000882329F19CEF980F913A18F40E94DC1632
:101C50000DC090E2980F983058F4877091E001C061
:101C6000990F8A95EAF7892F0E9403170C9436176B
:101C70009BE5980F933020F480E090E00C94190CD1
:101C8000885A833120F480E090E00C942F0C089562
:101C9000882321F00E94FD160C943617089588239E
:101CA00021F00E9403170C9436170895CF92DF920B
:101CB000EF92FF920F931F93CF93DF93CDB7DEB7D1
:101CC00028970FB6F894DEBF0FBECDBF8C0185E01C
:101CD000F801DE01119601900D928A95E1F7F80165
:101CE00040813181F280258122952F7083819481FA
:101CF000892B31F03F3F31F481E04F3F19F403C0AD
:101D000081E001C080E080FDB0C249833A838981CF
:101D10009A812F830E9479169E8388870E94781665
:101D20000E944B154E81E42FE295EF70F0E0EA5AE5
:101D3000FF4F2F8168850C943A1E842F807F142FCB
:101D40001F70882311F01295107FFF2059F0112386
:101D500009F440C2812F68870E940D170E94361730
:101D6000688538C2862F0E94200E112309F47DC297
:101D7000812F0E94131728960FB6F894DEBF0FBE6E
:101D8000CDBFDF91CF911F910F91FF90EF90DF902A
:101D9000CF900C943617342F307F842F8F703032D1
:101DA00011F08295807F662319F0613009F12AC015
:101DB000FF20A1F0222381F1213071F528960FB682
:101DC000F894DEBF0FBECDBFDF91CF911F910F9171
:101DD000FF90EF90DF90CF900C941D17222319F005
:101DE000213009F442C28E830E9420178E8176C171
:101DF000FF2021F0263008F038C20EC0253008F050
:101E000034C26CC1FF20C1F0222331F0F80195816A
:101E100090FFE0C19F70958328960FB6F894DEBFBF
:101E20000FBECDBFDF91CF911F910F91FF90EF902B
:101E3000DF90CF900C94480E222309F44FC1DEC1ED
:101E4000242F26952695237030E02115310521F0A9
:101E500021303105C9F009C2FF2021F0862F942FCF
:101E6000937002C080E090E028960FB6F894DEBF31
:101E70000FBECDBFDF91CF911F910F91FF90EF90DB
:101E8000DF90CF900C94190CFF2021F0862F942F17
:101E9000937002C080E090E028960FB6F894DEBF01
:101EA0000FBECDBFDF91CF911F910F91FF90EF90AB
:101EB000DF90CF900C942F0C842F837009F076C0A4
:101EC000F110D3C1262F229526952770220F220FBD
:101ED000862F8F70C82ED12CE12CF12C022E04C03D
:101EE000CC0CDD1CEE1CFF1C0A94D2F764FF10C062
:101EF0006FE070E080E090E004C0660F771F881FFD
:101F0000991F2A95D2F7609570958095909503C09A
:101F100060E070E0CB01242F269526952370422F98
:101F200050E042305105D1F04330510559F16C2950
:101F30007D298E299F294130510541F128960FB600
:101F4000F894DEBF0FBECDBFDF91CF911F910F91EF
:101F5000FF90EF90DF90CF900C9470156C297D2945
:101F60008E299F2928960FB6F894DEBF0FBECDBFED
:101F7000DF91CF911F910F91FF90EF90DF90CF9065
:101F80000C948A150E947015C701B60128960FB6E9
:101F9000F894DEBF0FBECDBFDF91CF911F910F919F
:101FA000FF90EF90DF90CF900C945615FF2019F022
:101FB000842F817001C08695882309F456C1262F8D
:101FC000229526952770220F220F862F8F70C82EFC
:101FD000D12CE12CF12C022E04C0CC0CDD1CEE1C0B
:101FE000FF1C0A94D2F764FF10C06FE070E080E03D
:101FF00090E004C0660F771F881F991F2A95D2F7BB
:10200000609570958095909503C060E070E0CB017D
:10201000242F269526952370422F50E042305105FB
:10202000D1F04330510559F16C297D298E299F2922
:102030004130510541F128960FB6F894DEBF0FBE2E
:10204000CDBFDF91CF911F910F91FF90EF90DF9067
:10205000CF900C9444166C297D298E299F292896AF
:102060000FB6F894DEBF0FBECDBFDF91CF911F91A9
:102070000F91FF90EF90DF90CF900C945E160E942E
:102080004416C701B60128960FB6F894DEBF0FBEFE
:10209000CDBFDF91CF911F910F91FF90EF90DF9017
:1020A000CF900C942A16603F49F118F4603E48F432
:1020B0008CC0623F09F451C0E0F1633F09F461C094
:1020C00084C0162F1F70842F8F71FF2021F00E9473
:1020D000C315812FA1CE0E94E415812F28960FB63B
:1020E000F894DEBF0FBECDBFDF91CF911F910F914E
:1020F000FF90EF90DF90CF900C944F0EFF20A9F04F
:10210000253008F0B2C0842F8F7128960FB6F8944E
:10211000DEBF0FBECDBFDF91CF911F910F91FF901A
:10212000EF90DF90CF900C940916263008F09DC0F8
:10213000EACFFF20A1F0842F8F7128960FB6F89474
:10214000DEBF0FBECDBFDF91CF911F910F91FF90EA
:10215000EF90DF90CF900C94C315FF2061F3842F94
:102160008F7128960FB6F894DEBF0FBECDBFDF91FA
:10217000CF911F910F91FF90EF90DF90CF900C9433
:10218000E415FF2091F0842F8F7128960FB6F894F4
:10219000DEBF0FBECDBFDF91CF911F910F91FF909A
:1021A000EF90DF90CF900C94AE1528960FB6F89470
:1021B000DEBF0FBECDBFDF91CF911F910F91FF907A
:1021C000EF90DF90CF900C94A415FF20A1F0222374
:1021D00009F4B1CF862F28960FB6F894DEBF0FBE54
:1021E000CDBFDF91CF911F910F91FF90EF90DF90C6
:1021F000CF900C94810D222309F4B1CF862F28961D
:102200000FB6F894DEBF0FBECDBFDF91CF911F9107
:102210000F91FF90EF90DF90CF900C94200E4F70B5
:10222000C8010E94941828960FB6F894DEBF0FBE1E
:10223000CDBFDF91CF911F910F91FF90EF90DF9075
:10224000CF900C94CB144F70C80128960FB6F89419
:10225000DEBF0FBECDBFDF91CF911F910F91FF90D9
:10226000EF90DF90CF900C94971828960FB6F894C3
:10227000DEBF0FBECDBFDF91CF911F910F91FF90B9
:10228000EF90DF90CF9008950E941A170E94EF16EA
:102290000E94361780E090E00E94190C80E090E0E8
:1022A0000C942F0C0E940A170C9444110E9479166A
:1022B000292F22952F7030E02C3031054CF42A3034
:1022C00031056CF4225031092230310590F407C0F9
:1022D0002C30310551F02F30310539F00AC0803EE5
:1022E00010F0803F31F481E0089593FB882780F956
:1022F000089580E00895CF93DF9300D000D01F921F
:10230000CDB7DEB70F900F900F900F900F90DF9129
:10231000CF910895CF93DF9300D000D000D0CDB7F8
:10232000DEB726960FB6F894DEBF0FBECDBFDF91A5
:10233000CF9108951F93CF93DF93C091690116E069
:1023400080916A01C81799F0D0E01C9FF0011D9F91
:10235000F00D1124E559FE4F408151816281738156
:10236000848195810E948A112196C770E9CFDF91FF
:10237000CF911F91089540919B0150919C016091D4
:102380009D0170919E0180919F019091A0010C94FC
:102390008A11CF938091A00182958F7009F05FC060
:1023A00080919D01882309F45AC020916901A09170
:1023B0006A0160919B0170919C0180919E019091B6
:1023C0009F0131E06F3F09F030E0B32FC6E02A17DC
:1023D00009F445C0009721F07F3F21F44B2F03C043
:1023E00041E001C040E030E040FD35C0C29FF00157
:1023F000C39FF00D1124E559FE4F418174132BC08A
:102400004081641328C04281411125C04381548119
:102410004817590710F441505109481B590B483CC3
:102420005105C8F48091A0018F7080618093A00154
:1024300086E0829FF001839FF00D1124E059FE4F4A
:1024400080818F70806180838BE991E00E94560EBD
:10245000CF910C949A112F5F3F4F2770B8CFCF9137
:102460000895CF92DF92EF92FF920F931F93CF9335
:10247000DF93CDB7DEB762970FB6F894DEBF0FBE1D
:10248000CDBF8C0185E0F801DE011D9601900D9213
:102490008A95E1F7D8014C9111965C9111971296AB
:1024A0006C9112971396ED90FC90149770919B018C
:1024B000E0919C0120919E0130919F0121153105F1
:1024C00031F0EF3F31F481E07F3F19F403C081E048
:1024D00001C080E0B82FB170CB2E80FD6CC1D090D0
:1024E0009D01DD2009F4F5C0F091A001E216F3068C
:1024F00038F0C701821B930B883C910548F09BC0C4
:10250000209530952E0D3F1D283C310508F093C0D5
:102510008F2F807F09F052C0E51314C0741312C0CE
:10252000D62E61110FC0FF70F061F093A0010E94E0
:10253000BB118BE991E00E94560E8091A001F80139
:1025400085836CC1EF2831F05F3F31F481E04F3F6C
:1025500019F403C081E001C080E080FD03C081E088
:10256000862701C080E0F82FF170FF2E80FF1CC08D
:102570008091690120916A0136E0821709F428C12F
:1025800090E0389FF001399FF00D1124E559FE4F7E
:102590007181571306C07081471303C0728167139E
:1025A00003C001968770E9CFD62E662309F436C1A1
:1025B0008091A00181608093A00153C0E51308C001
:1025C000741306C0611104C0D8011596FC93AEC007
:1025D0004D875E878D859E856A8B0E9456116A891C
:1025E000882329F1D62E662311F12091A001822F94
:1025F00082958F7090E002970CF460C080919B01EF
:1026000090919C0198878F831986FB86EA862C8798
:10261000CE01079651C0E51731F14D875E878D8554
:102620009E856A8B0E9456116A8981112EC0C8014D
:102630000E94560EA4C08F2F807F69F77E2DF98AE5
:10264000E88A89890E947B118BE991E00E94560EED
:10265000EBE9F1E086E0DF011D928A95E9F70E943F
:10266000BB11D12CDBC07413D8CF6111D6CFD801E8
:102670001596FC93C8010E94560EEBE9F1E086E046
:10268000DF011D928A95E9F7C9C0D62E662379F23B
:102690002091A001822F82958F7090E0029774F0B4
:1026A00080919B0190919C019A8389831B82FD827A
:1026B000EC822E83CE0101960E94560E86E0F80130
:1026C000ABE9B1E001900D928A95E1F70E94C91142
:1026D0006FC0E216F30628F0C701821B930B9C0122
:1026E00004C0209530952E0D3F1D283C310508F083
:1026F00052C0D62E662309F49ACFE5132CC074136A
:102700002AC08091A00180FD1DC0982F92959F70D6
:10271000C9F0D80115968C9315979F3039F09F5FBB
:102720009295907F8F70892B15968C93C8010E948B
:10273000560E86E0F801ABE9B1E001900D928A9562
:10274000E1F736C086E0F801ABE9B1E001900D9207
:102750008A95E1F763C04D875E878D859E850E94CF
:102760005611882379F086E0F801ABE9B1E00190D9
:102770000D928A95E1F70E94C9110E94BB11DD24D8
:10278000D3944CC08091A00181608093A001C801C6
:102790000E94560E43C07E2DF98AE88A89890E94DC
:1027A0007B11EBE9F1E086E0DF011D928A95E9F704
:1027B0000E94BB1133C0662309F439CF4D875E8771
:1027C0008D859E850E945611882309F430CFCBCF8A
:1027D0004D875E878D859E850E947916292F2295CB
:1027E0002F7030E0223031052CF49F7041F08111C0
:1027F00006C00CC0243031052CF49F7049F4805E73
:10280000883020F0C8010E94560ECF2CDC2C06C068
:10281000D80115969C91907F91F7F8CF8D2D6296F7
:102820000FB6F894DEBF0FBECDBFDF91CF911F91E1
:102830000F91FF90EF90DF90CF9008951F93CF936B
:10284000DF93CDB7DEB72C970FB6F894DEBF0FBE7F
:10285000CDBF4F83588769877A878B879C87CE0146
:1028600007960E9431128823C1F02F8138858A850E
:102870009B85892B31F03F3F11F080E003C02F3F53
:10288000E1F781E0811147C04F81588569857A85DC
:102890008B859C850E948A113EC086E0FE0137969A
:1028A000DE01119601900D928A95E1F7FF81E8858E
:1028B0004A855B854115510531F0EF3F31F481E0E8
:1028C000FF3F19F403C081E001C080E080FD23C018
:1028D00020916A0130E0C9010196877099276091C3
:1028E000690170E086179707F1F1F983EA835D8348
:1028F0004C8396E0929FD001939FB00D1124A5596F
:10290000BE4FFE01319601900D929A95E1F78093AA
:102910006A010E949A1116E08091690190916A0102
:10292000891779F1189FC001112485599E4F0E9483
:102930003112882331F1E09169011E9FF0011124C9
:10294000E559FE4F40815181628173818481958177
:102950000E948A118091690190E001968770992701
:1029600080936901D9CF0E94521110926A0110928E
:102970006901EBE9F1E086E0DF011D928A95E9F754
:10298000CACF2C960FB6F894DEBF0FBECDBFDF9135
:10299000CF911F910895EF92FF920F931F93CF93C2
:1029A000DF93FC01009709F46FC0F12CEE24E3944F
:1029B000EF0121968491843740F4843008F055C0AB
:1029C000813081F0823021F15FC0853709F447C042
:1029D000C0F19CE7980F903708F056C08F770E949F
:1029E000200E45C08F010E5F1F4FFE01849190E2C3
:1029F000980F983050F48770FE2D01C0FF0F8A9514
:102A0000EAF78F2F0E940D1715C00E94810D14C088
:102A10008F010E5F1F4FFE01849190E2980F983056
:102A200068F48770FE2D01C0FF0F8A95EAF78F2F9B
:102A30000E9413170E943617E80119C00E94200E49
:102A4000FBCFCF010296FE01C491CC2361F0EFE9E8
:102A5000FFE03197F1F700C00000C150F6CFCF0181
:102A60000296FE01F490EC0102C00E94810D8F2DB0
:102A7000882341F0EFE9FFE03197F1F700C0000053
:102A80008150F6CFFE0194CFDF91CF911F910F912E
:102A9000FF90EF90089508956093A5017093A601AB
:102AA0008093A7019093A8010C9444110F931F9356
:102AB0000091A5011091A6012091A7013091A801D4
:102AC000062B172B282B392B0093A5011093A60159
:102AD0002093A7013093A8011F910F910C944411EA
:102AE0000F931F930091A5011091A6012091A701BA
:102AF0003091A80106231723282339230093A50129
:102B00001093A6012093A7013093A8011F910F9164
:102B10000C9444110F931F930091A5011091A601ED
:102B20002091A7013091A8010627172728273927C8
:102B30000093A5011093A6012093A7013093A8014B
:102B40001F910F910C9444111092A1011092A201B7
:102B50001092A3011092A4010C94441141E050E0A2
:102B600060E070E004C0440F551F661F771F8A9510
:102B7000D2F74093A1015093A2016093A3017093F7
:102B8000A4010C94441141E050E060E070E004C006
:102B9000440F551F661F771F8A95D2F78091A101B8
:102BA0009091A201A091A301B091A401842B952B37
:102BB000A62BB72B8093A1019093A201A093A30110
:102BC000B093A4010C94441141E050E060E070E047
:102BD00004C0440F551F661F771F8A95D2F7409592
:102BE0005095609570958091A1019091A201A0915E
:102BF000A301B091A40184239523A623B723809336
:102C0000A1019093A201A093A301B093A4010C94FD
:102C1000441141E050E060E070E004C0440F551FF3
:102C2000661F771F8A95D2F78091A1019091A2012A
:102C3000A091A301B091A40184279527A627B727C7
:102C40008093A1019093A201A093A301B093A4014A
:102C50000C9444110F931F930091A1011091A201B4
:102C60002091A3013091A401062B172B282B392B7F
:102C70000093A1011093A2012093A3013093A4011A
:102C80001F910F910C9444110F931F930091A10178
:102C90001091A2012091A3013091A40106231723D2
:102CA000282339230093A1011093A2012093A301AB
:102CB0003093A4011F910F910C9444110F931F9313
:102CC0000091A1011091A2012091A3013091A401D2
:102CD00006271727282739270093A1011093A2015F
:102CE0002093A3013093A4011F910F910C944411E0
:102CF0000895CF92DF92EF92FF920F931F93CF939D
:102D0000DF93EC01C090A501D090A601E090A7014F
:102D1000F090A8018091A1019091A201A091A3013E
:102D2000B091A401C82AD92AEA2AFB2A0FE110E0AF
:102D3000B701A601002E04C0769567955795479573
:102D40000A94D2F740FF07C0BE01802F0E942118CD
:102D50008130910539F40150110950F7BE0180E02E
:102D60000E942118DF91CF911F910F91FF90EF905A
:102D7000DF90CF90089540910D0150910E0120E019
:102D800030E09FEFFA01E20FF31F6281681799F0BC
:102D90009F3F19F4611101C0922F2F5F3F4F2630E2
:102DA000310581F79F3F39F0FA01E90FF11D97FDD9
:102DB000FA9582830895089540910D0150910E0176
:102DC00020E030E0FA01E20FF31F9281981301C076
:102DD00012822F5F3F4F26303105A1F7089581E021
:102DE00090E0E0910D01F0910E01E80FF91F1082C3
:102DF000019688309105A9F708959091B301982B19
:102E00009093B301089580959091B3019823909386
:102E1000B30108951092B30108959091B201982BD7
:102E20009093B201089580959091B2019823909368
:102E3000B20108951092B20108958093A9010895F6
:102E40001092A901089540910D0150910E0120E0CA
:102E500030E080E0FA01E20FF31F918191118F5F62
:102E60002F5F3F4F27303105A9F70895E0910D01FD
:102E7000F0910E018091B3018083E0910D01F091FA
:102E80000E0180819091B201892B80839091A901DC
:102E9000992361F0E0910D01F0910E018081892B61
:102EA00080830E94231781111092A90180910D0146
:102EB00090910E010C94D40BCF93DF938D3B60F473
:102EC000883A90F5853A38F5843010F5813009F06C
:102ED0006DC0C1E0D0E0B1C0883E98F4803EC0F43F
:102EE0008F3B09F063C00E9452112FEF80E792E000
:102EF000215080409040E1F700C000000E94691915
:102F00009CC0803F08F452C0C82FD0E0D06595C067
:102F1000C82FD0E092C0853A09F44BC0863A09F038
:102F20004BC0C2E8D0E489C0883A09F448C0893A65
:102F300009F448C08A3A09F448C08B3A09F448C0F9
:102F40008C3A09F448C08B3B09F448C08C3B09F427
:102F500048C08D3A09F448C0803B09F448C08E3A15
:102F600009F448C08F3A09F448C0813B09F448C0CD
:102F7000823B09F448C0833B09F448C0843B09F410
:102F800048C0853B09F448C0863B09F448C0873BEC
:102F900009F448C0883B09F448C0893B09F448C09B
:102FA0008A3B09F048C0CAE2D6E447C0C0E0D0E09E
:102FB00044C0C1E8D0E441C0C3E8D0E43EC0C2EEA2
:102FC000D4E43BC0C9EED4E438C0CAEED4E435C082
:102FD000C5EBD4E432C0C6EBD4E42FC0C3EBD4E4D9
:102FE0002CC0C4EBD4E429C0C7EBD4E426C0CCEC9D
:102FF000D4E423C0CDECD4E420C0C3E8D5E41DC0A4
:10300000CAE8D5E41AC0C2E9D5E417C0C4E9D5E4DA
:1030100014C0C1E2D6E411C0C3E2D6E40EC0C4E2DB
:10302000D6E40BC0C5E2D6E408C0C6E2D6E405C0CB
:10303000C7E2D6E402C0C0E0D4E4CE01DF91CF9174
:1030400008950E941405803EA8F4803C00F5813369
:1030500009F45CC038F4893209F452C08A3209F4A8
:103060005BC05FC08933B1F08238A1F0853309F4C9
:1030700041C057C0833E41F128F4803E99F0823E22
:10308000B9F04FC0863E31F1873E71F14AC00E94CF
:10309000230508959091BB0190FD02C091FF41C0AE
:1030A00080EE3FC08091BB0180FFFACF89E339C039
:1030B0008091BB0182FF0CC08091BB0184FF02C0E4
:1030C00080E02FC083EE2DC08091BB0182FFF4CF42
:1030D00082EE27C08091BB0183FF0AC08091BB01B3
:1030E00084FDEECF87EE1DC08091BB0183FFF6CF3C
:1030F00086EE17C08091BB0185FF06C089E211C032
:103100008091BB0185FFFACF85E30BC08091BB01A5
:1031100086FF06C08AE205C08091BB0186FFFACF18
:1031200081E30E945C17089580E090E0089508957F
:10313000909311018093100108958295982F9C7CA3
:1031400096959695837344E0849F90011124922B69
:10315000892F8A7A86959575990F892B08951F93E3
:10316000CF93DF931F92CDB7DEB799830E949D184E
:10317000182F9981892F0E949D18212F30E0322F1E
:103180002227A901482BCA010F90DF91CF911F91EF
:1031900008951092B50120E488E190E00FB6F8940C
:1031A000A895809360000FBE2093600083B7817F55
:1031B000846083BF83B7816083BF7894889583B729
:1031C0008E7F83BF88E10FB6F894809360001092E1
:1031D00060000FBE089508950895CF930E94EB18E4
:1031E0000E9455050E94EC18C0E08C2F0E949B079E
:1031F000672B682B692B29F4CF5FC630B1F780E0CD
:1032000001C081E0CF9108950C9452111F920F924A
:103210000FB60F9211248F939F93AF93BF9380911A
:10322000B501811113C08091B6019091B701A091B1
:10323000B801B091B9014196A11DB11D8093B601AD
:103240009093B701A093B801B093B901BF91AF912A
:103250009F918F910F900FBE0F901F90189582E055
:1032600084BD93E095BD9AEF97BD80936E0008955D
:103270002FB7F8948091B6019091B701A091B80151
:10328000B091B9012FBF08951F920F920FB60F9200
:1032900011248F939F93AF93BF938091B601909128
:1032A000B701A091B801B091B9010196A11DB11D5E
:1032B0008093B6019093B701A093B801B093B90180
:1032C000BF91AF919F918F910F900FBE0F901F9064
:1032D0001895F89481E08093E00080E28093D80014
:1032E0001092C9008FE19EE40197F1F700C0000041
:1032F00087E090EBDC018093BC019093BD01A0932B
:10330000BE01B093BF012CE088E190E00FB6F894C5
:10331000A895809360000FBE20936000FFCFCF92EE
:10332000DF92EF92FF920F931F93CF93DF93082FBB
:1033300010E0812F0E949B076B017C01C0E0D0E070
:10334000B701A6010C2E04C0769567955795479551
:103350000A94D2F740FD05C02196C231D10581F70C
:1033600009C06C2F712F80E00E9414050813F4CF60
:1033700081E004C01F5F1630E1F680E0DF91CF915D
:103380001F910F91FF90EF90DF90CF900895CF9312
:10339000C82F8CE20E948F19882321F08C2FCF91A7
:1033A0000C948F1980E0CF910895CF930E941B1B3E
:1033B000811102C00E94011B87EB93E00E947204FE
:1033C000C5E6C15049F00E9455058FE39CE901977D
:1033D000F1F700C00000F5CF80EB93E00E9472048B
:1033E00089E20E94C71981110AC18AE20E94C719A5
:1033F00081110E94011B85E00E94C71981110E9462
:1034000069190E94261B8093B40187E00E94C719A6
:10341000882399F18BE10E94C719882351F090917C
:10342000B40191FB882780F921E0822780FB91F984
:1034300022C08EE00E94C719882351F09091B401F8
:1034400092FB882780F921E0822780FB92F913C044
:1034500080E10E94C7199091B401882341F093FB49
:10346000882780F921E0822780FB93F904C0892F07
:10347000809580FB90F99093B4018091B4010E94F3
:103480002A1B0E94381B8093BB0180EE0E94C71943
:10349000882341F08091BB01982F909590FB80F993
:1034A0008093BB0189E30E94C719882359F090914A
:1034B000BB0191FB882780F921E0822780FB91F9ED
:1034C0009093BB0182EE0E94C719882359F0909116
:1034D000BB0192FB882780F921E0822780FB92F9CB
:1034E0009093BB0186EE0E94C719882359F09091F2
:1034F000BB0193FB882780F921E0822780FB93F9A9
:103500009093BB0183EE0E94C719882359F09091D4
:10351000BB0194FB882780F921E0822780FB94F986
:103520009093BB0185E30E94C719882359F09091BD
:10353000BB0195FB882780F921E0822780FB95F964
:103540009093BB0181E30E94C719882359F09091A1
:10355000BB0196FB882780F921E0822780FB96F942
:103560009093BB0181E10E94C719882359F0909183
:10357000BB0197FB882780F921E0822780FB97F920
:103580009093BB018091BB010E943C1B87E20E948B
:10359000C719C82F8EE10E94C7198111C2608FE13F
:1035A0000E94C7198111C46080E20E94C71981116D
:1035B000C86081E20E94C7198111C06182E20E9445
:1035C000C7198111C06283E20E94C7198111C064CA
:1035D00084E20E94C719882311F0C06802C0CC237E
:1035E00029F08C2F0E94331B6C2F03C00E942F1BCD
:1035F000682F70E080E090E0CF910C944C15CF9153
:1036000008956DEE7EEF80E090E00E945C1E60E029
:1036100082E090E00E944E1E60E083E090E00E9415
:103620004E1E60E084E090E00E944E1E60E085E067
:1036300090E00C944E1E80E090E00E94481E21E035
:103640008D3E9E4F09F020E0822F089582E090E0A9
:103650000C94401E682F82E090E00C944E1E83E094
:1036600090E00C94401E682F83E090E00C944E1E76
:1036700084E090E00C94401E682F84E090E00C946D
:103680004E1ECF93C82F1F928F9322ED33E03F93AE
:103690002F930E940B0561E070E080E090E004C091
:1036A000660F771F881F991FCA95D2F70E944C1585
:1036B0000F900F900F900F90CF910C945211CF93C9
:1036C0008732B0F58E3108F079C28E3009F4BDC171
:1036D00000F5873009F48DC1A8F4863009F072C274
:1036E0008091B401817F8E7F8093B40187ED93E058
:1036F0000E94720481E398E00E94720481E080934A
:10370000BA0175C1883009F43FC08B3009F46BC130
:1037100059C2863109F4DDC120F4803109F4A8C111
:1037200051C2893109F4BEC18B3109F47BC14AC24F
:10373000883309F458C150F4893209F43DC2853305
:1037400009F43AC2873209F03DC236C2833409F423
:1037500033C228F48A3308F435C2895330C288341E
:1037600009F030C20E94521180E298E00E94720477
:103770009FEF23ED80E3915020408040E1F700C0AF
:1037800000000E94691933C185E398E00E94720429
:1037900082EC95E00E9472040E942F1B1F928F936F
:1037A0008FEB95E09F938F930E940B058DEB95E037
:1037B0000E9472040E94261BC82F8AEA95E00E948C
:1037C00072041F92CF9325EA35E03F932F930E9416
:1037D0000B0583EA95E00E94720489E995E00E9456
:1037E00072048C2F81701F928F9326E935E03F93EE
:1037F0002F930E940B0584E995E00E9472048AE8E9
:1038000095E00E947204C1FB882780F91F928F9374
:1038100027E835E03F932F930E940B0585E895E05C
:103820000E94720489E795E00E947204C2FB882717
:1038300080F91F928F9326E735E03F932F930E94E4
:103840000B0584E795E00E9472048BE695E00E94E8
:103850007204C3FBCC27C0F91F92CF9388E695E092
:103860009F938F930E940B0586E695E00E94720459
:103870000E94381BC82F82E595E00E9472041F92B7
:10388000CF932DE435E03F932F930E940B058BE4FB
:1038900095E00E94720482E395E00E9472048C2FEE
:1038A00081701F928F932FE235E03F932F930E94F8
:1038B0000B058DB79EB780960FB6F8949EBF0FBECE
:1038C0008DBF8DE295E00E94720486E195E00E9432
:1038D0007204C1FB882780F91F928F9323E135E0A2
:1038E0003F932F930E940B0581E195E00E947204A3
:1038F0008FEF94E00E947204C2FB882780F91F9228
:103900008F932CEF34E03F932F930E940B058AEFA7
:1039100094E00E94720488EE94E00E947204C3FB5B
:10392000882780F91F928F9325EE34E03F932F93E1
:103930000E940B0583EE94E00E94720489ED94E0EE
:103940000E947204C4FB882780F91F928F9326ED92
:1039500034E03F932F930E940B0584ED94E00E9486
:10396000720482EC94E00E947204C5FB882780F9FF
:103970001F928F932FEB34E03F932F930E940B0500
:103980008DEB94E00E94720481EA94E00E9472043C
:10399000C6FB882780F91F928F932EE934E03F936E
:1039A0002F930E940B058CE994E00E94720484E935
:1039B00094E00E947204C7FBCC27C0F91F92CF93FA
:1039C00081E994E09F938F930E940B058FE894E028
:1039D0000E9472048DB79EB74C960FB6F8949EBFA6
:1039E0000FBE8DBF04C082EF93E00E947204C1E05D
:1039F000EEC08091B401C82FC17080FF09C083E17F
:103A000098E00E9472048091B401817F8E7F44C04F
:103A100087E098E00E9472048091B40181608093F5
:103A2000B401E5CF8091B40181FBCC27C0F991E0CE
:103A3000C927C0FB81F98093B401CC2319F08AEF28
:103A400097E025C08CEE97E0D0CF8091B40182FB47
:103A5000CC27C0F991E0C927C0FB82F98093B4015B
:103A6000CC2319F08DED97E012C08DEC97E0BDCF1F
:103A70008091B40183FBCC27C0F991E0C927C0FB3A
:103A800083F98093B401CC2351F081EC97E00E943C
:103A900072048091B40181608093B40198C084EB7A
:103AA00097E0A3CF85EA97E00E9472048EE697E044
:103AB0000E9472048CE297E00E9472048FEF96E0FD
:103AC0000E9472048DEB96E00E9472048FE896E0EB
:103AD0008CCF81E896E00E9472040E94C80B1F926E
:103AE0008F9387E696E09F938F930E940B058091BA
:103AF0000C011F928F9380E596E09F938F930E9415
:103B00000B0580910B011F928F938DE396E09F939D
:103B10008F930E940B058091B6019091B701A091FF
:103B2000B801B091B901BF93AF939F938F9389E28E
:103B300096E09F938F930E940B058091E0001F9267
:103B40008F938EE196E09F938F930E940B05809157
:103B5000E2001F928F9383E196E09F938F930E94E0
:103B60000B058091E1001F928F9388E096E09F9370
:103B70008F930E940B05809142011F928F9381EFDA
:103B800095E09F938F930E940B058DB79EB7829609
:103B90000FB6F8949EBF0FBE8DBF809143011F9258
:103BA0008F9384ED95E09F938F930E940B050F9068
:103BB0000F900F900F901BCF80E001C08D510E949D
:103BC000411B15CF82ED95E00E947204C0E08C2F5E
:103BD000CF91089580E0089580E00895CF93C82F95
:103BE0008091BA01882319F0813049F03BC0E091FF
:103BF0000D01F0910E0180818232B1F507C0E09194
:103C00000D01F0910E018081823249F48C2F0E94C7
:103C1000EA1D811124C08C2F0E945F1B21C08C2FB4
:103C20000E94EC1D81111BC0C43189F018F4CB3007
:103C300029F010C0C93259F0C83361F487ED93E020
:103C40000E9472048EEC93E00E94720408C01092ED
:103C5000BA010CC08CEC93E00E94720407C081E0B2
:103C6000817006C01092BA0180E002C080E0F8CFF7
:103C7000CF910895EE0FFF1F0590F491E02D099468
:103C8000F999FECF92BD81BDF89A992780B5089524
:103C9000A8E1B0E042E050E00C94631E262FF999B1
:103CA000FECF1FBA92BD81BD20BD0FB6F894FA9A1F
:103CB000F99A0FBE019608950E944E1E272F0C946C
:103CC0004F1EDC01CB01FC01F999FECF06C0F2BD0D
:103CD000E1BDF89A319600B40D9241505040B8F7CA
:063CE0000895F894FFCFE7
:103CE600051B0823081E0821081F087D01AA0100DC
:00000001FF
