:100000000C945A070C949E070C949E070C949E0720
:100010000C949E070C949E070C949E070C949E07CC
:100020000C949E070C949E070C942C0E0C94FC0EC2
:100030000C940D1F0C949E070C949E070C949E0725
:100040000C949E070C949E070C949E070C949E079C
:100050000C949E070C94741F0C949E070C949E079E
:100060000C949E070C949E070C949E070C949E077C
:100070000C949E070C949E070C949E070C949E076C
:100080000C949E070C949E070C949E070C949E075C
:100090000C949E070C949E070C949E070C949E074C
:1000A0000C949E070C949E070C949E076410861077
:1000B000721186107211C810EC1072114111541196
:1000C0004E144E147C147C14D1140D15FE16FE161D
:1000D0002515FE161C161C16D816FE16FE16EC1656
:1000E000F1A1028AF1A1291E1F2021222324252605
:1000F000272D2E31352B00141A0815171C180C1239
:10010000132F302AE000041607090A0B0D0E0F33D7
:10011000340028E1001D1B06190511103637380080
:10012000E5C0C2E3E2002C0000002C00E7E600C1BD
:10013000E4A83A3B3C3D3E3F404142434445A9AAE6
:100140000100F9F00101010101014A4B52014C018A
:1001500000F2F1F3010101010101504F0001010022
:10016000FAF5F6010101014D4E51000101010101B5
:1001700000F4000000010001010001010A00253027
:10018000313662003A200025303258000A722F635F
:1001900020303132333435363738394142434445E3
:1001A000460A000A002530325800626F756E63659A
:1001B000213A20005B735D004B6579626F61726468
:1001C0002073746172742E0A0055534220636F6E5F
:1001D000666967757265642E0A005B575D005B5344
:1001E0005D005B525D005B445D005B435D001C0392
:1001F00054007200610069006E0062006F006100CF
:10020000720064002D0056003000000018036200E8
:10021000740067002D006C0069006D0069007400B7
:10022000650064000000040309040902740004016D
:1002300000A032090400000103010100092111019D
:100240000001223F000705810308000A090401009C
:100250000103010200092111010001224D000705DF
:10026000820308000A0904020001030000000921BA
:10027000110100012236000705830308000A090462
:1002800003000203000000092111010001222000E7
:100290000705840320000107050403200001120163
:1002A000100100000008EDFE606001000102000185
:1002B0000631FF0974A1010975150025FF95207508
:1002C0000881020976150025FF952075089102C066
:1002D00005010980A101850216010026B7001A0157
:1002E000002AB700751095018100C0050C0901A115
:1002F000018503160100269C021A01002A9C027542
:100300001095018100C005010902A1010901A100A8
:1003100005091901290515002501950575018102B9
:100320009501750381010501093009311581257F8A
:1003300095027508810609381581257F9501750894
:100340008106050C0A38021581257F950175088103
:1003500006C0C005010906A101050719E029E71536
:100360000025019508750181029501750881010537
:1003700008190129059505750191029501750391EB
:10038000010507190029FF150025FF95067508814D
:1003900000C00A002530325820006B6579626F6119
:1003A00072645F7265706F72743A20000A002530C3
:1003B0003258006B6579626F6172645F7365745F58
:1003C0006C65643A2000646F6E652E0A00626F6F80
:1003D000676D61676963207363616E3A202E2E2E0C
:1003E0002000290A002575002F002575005D2800D2
:1003F00025640020002564002000256400200025DD
:1004000064007C0025303258006D6F7573656B6534
:1004100079205B62746E7C782079207620685D2874
:100420007265702F61636C293A205B000A002575A4
:10043000006D6B5F776865656C5F74696D655F748F
:100440006F5F6D6178203D20000A002575006D6B9F
:100450005F776865656C5F6D61785F737065656413
:10046000203D20000A002575006D6B5F74696D6585
:100470005F746F5F6D6178203D20000A0025750074
:100480006D6B5F6D61785F7370656564203D200002
:100490000A002575006D6B5F696E74657276616C1C
:1004A000203D20000A002575006D6B5F64656C615E
:1004B00079203D20000A002575006D6B5F77686527
:1004C000656C5F74696D655F746F5F6D6178203D09
:1004D00020000A002575006D6B5F776865656C5FAD
:1004E0006D61785F7370656564203D20000A0025AA
:1004F00075006D6B5F74696D655F746F5F6D6178BA
:10050000203D20000A002575006D6B5F6D61785FEE
:100510007370656564203D20000A002575006D6BD1
:100520005F696E74657276616C203D20000A00255B
:1005300075006D6B5F64656C6179203D20000A0079
:10054000257500363A206D6B5F776865656C5F7462
:10055000696D655F746F5F6D61783A20000A0025F0
:100560007500353A206D6B5F776865656C5F6D610E
:10057000785F73706565643A20000A002575003461
:100580003A206D6B5F74696D655F746F5F6D617844
:100590003A20000A00257500333A206D6B5F6D61CB
:1005A000785F73706565643A20000A002575003233
:1005B0003A206D6B5F696E74657276616C286D733D
:1005C000293A20000A00257500313A206D6B5F64DE
:1005D000656C6179282A31306D73293A20000A0A46
:1005E0002D2D2D2D2D204D6F7573656B6579205048
:1005F0006172616D6574657273202D2D2D2D2D0A2C
:10060000003E20002575004D003F00736574206496
:10061000656661756C742076616C7565732E0A0071
:100620000A0025750073656C6563746564207061EC
:1006300072616D657465723A2000433E20000A5174
:10064000756974204D6F7573656B657920436F6EA6
:10065000736F6C650A0053656520687474703A2F77
:100660002F656E2E77696B6970656469612E6F7294
:10067000672F77696B692F4D6F7573655F6B657950
:10068000730A000A002575002C20776865656C3DAB
:100690000025750077686572652064656C74613A41
:1006A00020637572736F723D000A73706565642014
:1006B0003D2064656C7461202A206D61785F7370E1
:1006C000656564202A2028726570656174202F207A
:1006D00074696D655F746F5F6D6178290A0070677A
:1006E000646F776E3A096465637265617365207043
:1006F0006172616D6574657273282D3130290A004D
:10070000706775703A09696E637265617365207010
:100710006172616D6574657273282B3130290A002E
:10072000646F776E3A096465637265617365207002
:100730006172616D6574657273282D31290A0075C7
:10074000703A09696E6372656173652070617261E8
:100750006D6574657273282B31290A00643A097338
:1007600065742064656661756C742076616C75656E
:10077000730A00703A097072696E74207061726158
:100780006D65746572730A00363A0973656C65634A
:1007900074206D6B5F776865656C5F74696D655F0C
:1007A000746F5F6D61780A00353A0973656C656333
:1007B00074206D6B5F776865656C5F6D61785F73E2
:1007C000706565640A00343A0973656C656374206A
:1007D0006D6B5F74696D655F746F5F6D61780A0042
:1007E000333A0973656C656374206D6B5F6D617876
:1007F0005F73706565640A00323A0973656C6563FE
:1008000074206D6B5F696E74657276616C286D73B0
:10081000290A00313A0973656C656374206D6B5F5A
:1008200064656C6179282A31306D73290A0045535B
:10083000432F713A09717569740A000A0A2D2D2D2A
:100840002D2D204D6F7573656B6579205061726138
:100850006D65746572732048656C70202D2D2D2D8B
:100860002D0A003F004D303E000A456E746572202F
:100870004D6F7573656B657920436F6E736F6C6533
:100880000A000A5175697420436F6E736F6C65209E
:100890004D6F64650A00433E20000A002575002064
:1008A000746F20002575007377697463685F6465F1
:1008B0006661756C745F6C617965723A20006D3A9F
:1008C000096D6F7573656B65790A004553432F7128
:1008D0003A09717569740A000A0A2D2D2D2D2D20F3
:1008E000436F6E736F6C652048656C70202D2D2DE5
:1008F0002D2D0A00506175733A096A756D70207468
:100900006F20626F6F746C6F616465720A0043617F
:1009100070733A094C6F636B204B6579626F61723B
:1009200064284368696C642050726F6F66290A00FE
:10093000505363723A09706F77657220646F776EF7
:100940002F72656D6F74652077616B652D75700A08
:1009500000342F46343A0973776974636820746FE2
:10096000204C6179657234200A00332F46333A09EE
:1009700073776974636820746F204C617965723392
:10098000200A00322F46323A09737769746368206F
:10099000746F204C6179657232200A00312F463124
:1009A0003A0973776974636820746F204C617965C4
:1009B0007231200A00302F4631303A09737769745A
:1009C000636820746F204C6179657230200A00657D
:1009D0003A097072696E7420656570726F6D20637C
:1009E0006F6E6669670A00733A097072696E7420E7
:1009F0007374617475730A00743A097072696E7465
:100A00002074696D657220636F756E740A00763AA2
:100A1000097072696E742064657669636520766515
:100A20007273696F6E202620696E666F0A006D3AD8
:100A300009746F67676C65206D6F757365206465F9
:100A40006275670A006B3A09746F67676C65206BA3
:100A50006579626F6172642064656275670A007807
:100A60003A09746F67676C65206D617472697820EC
:100A700064656275670A00643A09746F67676C653C
:100A800020646562756720656E61626C650A00634B
:100A90003A09656E74657220636F6E736F6C6520C2
:100AA0006D6F64650A000A0A2D2D2D2D2D20436FD0
:100AB0006D6D616E642048656C70202D2D2D2D2D7F
:100AC0000A000A002575002E6E6B726F3A20000A2C
:100AD000002575002E737761705F6261636B736CC4
:100AE0006173685F6261636B73706163653A200074
:100AF0000A002575002E737761705F6772617665F5
:100B00005F6573633A20000A002575002E6E6F5FE3
:100B10006775693A20000A002575002E73776170A9
:100B20005F72616C745F726775693A20000A002514
:100B300075002E737761705F6C616C745F6C6775A4
:100B4000693A20000A002575002E636170736C6F8E
:100B5000636B5F746F5F636F6E74726F6C3A2000CB
:100B60000A002575002E737761705F636F6E747273
:100B70006F6C5F636170736C6F636B3A20000A0087
:100B800025303258006B65796D61705F636F6E66FA
:100B900069672E7261773A20000A002575002E6D74
:100BA0006F7573653A20000A002575002E6B657914
:100BB000626F6172643A20000A002575002E6D6133
:100BC000747269783A20000A002575002E656E61FE
:100BD000626C653A20000A00253032580064656274
:100BE00075675F636F6E6669672E7261773A200082
:100BF0000A0025750064656661756C745F6C6179C7
:100C000065723A20003F006B6579626F6172645FC4
:100C100069646C653A2025580A006B6579626F61DA
:100C200072645F70726F746F636F6C3A2025580A3C
:100C300000686F73745F6B6579626F6172645F6C7B
:100C400065647328293A2025580A000A0A2D2D2D9B
:100C50002D2D20537461747573202D2D2D2D2D0A8B
:100C60000074696D65725F636F756E743A2025302C
:100C7000346C580A004743433A20342E382E312032
:100C80004156522D4C4942433A20312E382E307372
:100C9000766E204156525F415243483A2061767247
:100CA000350A004F5054494F4E533A204C55464157
:100CB00020424F4F544D41474943204D4F555345D6
:100CC0004B45592045585452414B455920434F4EAE
:100CD000534F4C4520434F4D4D414E442034303905
:100CE000360A004255494C443A20626464656532D4
:100CF000342D6469727479202830303A32313A35B3
:100D000036204D61792031362032303135290A00C4
:100D10005649443A20307846454544286274672D48
:100D20006C696D6974656429205049443A203078B3
:100D30003630363028547261696E626F6172642D8C
:100D4000563029205645523A203078303030310A1A
:100D500000444553433A2053686F646479206669C0
:100D6000726D7761726520666F72207468652054B9
:100D70007261696E626F6172640A000A0A2D2D2D1C
:100D80002D2D2056657273696F6E202D2D2D2D2D02
:100D90000A000A44454255473A206D6F7573652035
:100DA00064697361626C65642E0A000A44454255A9
:100DB000473A206D6F75736520656E61626C65647E
:100DC0002E0A000A44454255473A206B6579626F06
:100DD0006172642064697361626C65642E0A000A42
:100DE00044454255473A206B6579626F61726420D1
:100DF000656E61626C65642E0A000A44454255477F
:100E00003A206D61747269782064697361626C65FF
:100E1000642E0A000A44454255473A206D617472B7
:100E2000697820656E61626C65642E0A000A44452B
:100E30004255473A20656E61626C65642E0A000A6D
:100E400044454255473A2064697361626C65642E7B
:100E50000A006E6F7420737570706F727465642E03
:100E60000A000A0A4A756D7020746F20626F6F74F1
:100E70006C6F616465722E2E2E2000433E20000AA6
:100E8000456E74657220436F6E736F6C65204D6F95
:100E900064650A00556E6C6F636B65642E0A004CC6
:100EA0006F636B65642E0A006565636F6E666967C4
:100EB0003A0A000011241FBECFEFDAE0DEBFCDBF3B
:100EC00004B603FE24C08091D0019091D101A0917D
:100ED000D201B091D3018730904BA740B04BB9F409
:100EE0001092D0011092D1011092D2011092D30130
:100EF00014BE84B7877F84BF88E10FB6F8948093CF
:100F00006000109260000FBEE0E0F8E3099511E088
:100F1000A0E0B1E0EEEBF8E502C005900D92A2333F
:100F2000B107D9F721E0A2E3B1E001C01D92A03DD5
:100F3000B207E1F70E94750C0C945D2C0C94000034
:100F4000FF93EF93E0913201F0913301309709F074
:100F50000995EF91FF910895FC018591803011F082
:100F6000EFDFFBCF0895FF27E0E230E247FF0CC040
:100F7000419597FF09C0EDE2609570958095909539
:100F8000611D711D811D911D27FF02C0219530E358
:100F900050E2AA27660F771F881F991FAA1FA41760
:100FA00010F0A41B63955A95A9F7AA3008F0A95F21
:100FB000A05DAF93F395611571058105910541F72A
:100FC000ED3211F4EF93F395F21718F43F93F39584
:100FD000FBCF8F91B5DFFA95E1F70895E991F9918B
:100FE0008591803021F0853219F0AADFF9CF08957C
:100FF00020E0E89455915532C1F3503311F46894D0
:1010000055915A3348F4505390F3220F022E220F79
:10101000220F200D250FF4CF0EF42195899199917F
:10102000533619F3533729F1533559F1BC01882749
:101030009927E8945C3621F48991999168945591A7
:10104000543639F446EF7EF077FF0DC08FEF9FEFF7
:101050000AC055374AE039F0583540E121F05236A0
:1010600042E009F00895FF93EF937DDFEF91FF9148
:10107000B7CFFF93EF93FC0181918030B9F360DF2C
:10108000FBCFFF93EF9368DFF1CFDF93CF93CDB723
:10109000DEB72596A3DFCF91DF91089508950895D7
:1010A0009FE0799FF00111249BE4899FE00DF11DE1
:1010B0001124E60FF11DEA51FF4F84910895E82FA6
:1010C000F0E0EE0FFF1FE05AF040859194910895F3
:1010D00084B1807E84B985B1807E85B908950E94EF
:1010E000680880B38C7080BB81B3836F81BB8AB189
:1010F00088728AB98BB1876D8BB984B18F7184B9CD
:1011000085B1806E85B9EEE3F1E0A4E3B1E0119220
:1011100011921D921D9281E0E834F807C1F70895FD
:101120002F923F924F925F926F927F928F929F92F7
:10113000AF92BF92CF92DF92EF92FF920F931F93E5
:10114000CF93DF93CDB7DEB729970FB6F894DEBF04
:101150000FBECDBF04E311E019822224239429811C
:10116000223079F018F4213049F005C0398133304C
:1011700059F0343061F0209A28980BC0219A2998B0
:1011800008C0229A2A9805C0239A2B9802C0249A54
:101190002C9840EA4A95F1F743B1552747FD509501
:1011A000409550954427550F441F552750E4459FBF
:1011B000502D44271124489B03C0C12CD12C03C0BF
:1011C000C12C60E2D62E499B03C0A0E0B0E002C073
:1011D000A0E0B0E14A9B03C01F821E8204C080E0F1
:1011E00098E09F838E83789B03C0A12CB12C03C011
:1011F000A12C34E0B32E799B03C0812C912C03C029
:10120000812C22E0922E7C9B03C0612C712C03C0A8
:10121000612C772473947D9B03C0412C512C03C017
:1012200080E8482E512C7E9B03C01B821A8204C08A
:10123000E0E4F0E0FB83EA832FB1332727FD30950C
:10124000209530952227330F221F3327F5E0220FF8
:10125000331FFA95E1F71E9B03C01D821C8204C058
:1012600080E190E09D838C831D9B03C0E12CF12CD9
:1012700003C078E0E72EF12C89B1992787FD90957E
:10128000809590958827990F881F9927880F991F17
:10129000880F991F4E9B03C060E070E002C062E0BF
:1012A00070E039B03294EFE03E223224E32DE17059
:1012B000E8871986E885F985E42BF52BEC29FD29CB
:1012C000EA2BFB2B4E815F81E42BF52BEA29FB29CE
:1012D000E829F929E629F729E429F529AA81BB811A
:1012E000EA2BFB2BE22BF32B2C813D81E22BF32B02
:1012F000EE29FF29E82BF92BE62BF72BF987E88756
:10130000D8018D919C9111978E179F0759F1ED93FC
:10131000FC9380910001882311F18091AF0180FF3F
:1013200004C08AEA91E00E94AC078091AF0180FF7F
:101330000EC0809100011F928F93A5EAB1E0BF9388
:10134000AF930E9445080F900F900F900F908091DF
:10135000AF0180FF04C083EA91E00E94AC0785E002
:10136000809300010E94680829812F5F29830E5F06
:101370001F4F253009F0F3CE809100018823C1F082
:10138000815080930001882339F08FE99FE0019715
:10139000F1F700C000000CC0AEE3B1E0E4E3F1E01F
:1013A000819191918D939D9391E0EE33F907C1F76F
:1013B00081E029960FB6F894DEBF0FBECDBFDF9156
:1013C000CF911F910F91FF90EF90DF90CF90BF9042
:1013D000AF909F908F907F906F905F904F903F90D5
:1013E0002F900895E82FF0E0EE0FFF1FE25CFE4F14
:1013F000808191810895CF92DF92EF92FF920F93B7
:101400001F93CF93DF938CE891E00E94AC07CEE36B
:10141000EC2EC1E0FC2EC0E0D0E017E8C12E11E0B8
:10142000D12E0EE711E0DF93CF93DF92CF920E948F
:10143000450884E891E00E94AC07F7018191919101
:101440007F010E94B61E9F938F931F930F930E945C
:1014500045088CE791E00E94AC0721968DB79EB7B6
:1014600008960FB6F8949EBF0FBE8DBFC530D1054C
:10147000D1F6DF91CF911F910F91FF90EF90DF9008
:10148000CF90089508958091510108959091C701DA
:10149000943009F04DC09091E9009F702091EC00CC
:1014A00020FF02C020E801C020E0292B94E09093A7
:1014B000E9009091EB0090FF38C09091EE0097FF0B
:1014C00034C090914801992321F09091E80095FF54
:1014D0002CC01092480196E03091E80035FD15C00F
:1014E0003091C701343009F53091EB0035FD1DC056
:1014F000915021F481E08093480117C0EFE9FFE0AB
:101500003197F1F700C00000E7CF8093F1008091A0
:10151000E80085FD05C08091E8008E778093E800A3
:101520002F702093E90080E008952F702093E90048
:101530008FEF0895CF93DF9300D01F92CDB7DEB722
:101540002091C701243019F523E029839B838A83E6
:101550002093E9008FEF9091E800815095FD06C03F
:1015600095ED9A95F1F700008111F5CF8091E80093
:1015700085FF0DC040E050E063E070E0CE010196D1
:101580000E94380F8091E8008E778093E8000F90DA
:101590000F900F90DF91CF910895CF93DF9300D0FC
:1015A0001F92CDB7DEB72091C701243021F522E08C
:1015B00029839B838A8383E08093E9008FEF909156
:1015C000E800815095FD06C095ED9A95F1F7000071
:1015D0008111F5CF8091E80085FF0DC040E050E01B
:1015E00063E070E0CE0101960E94380F8091E80020
:1015F0008E778093E8000F900F900F90DF91CF913E
:1016000008952091C7012430F1F422E02093E900ED
:101610002FEF3091E800215035FD06C035ED3A95A9
:10162000F1F700002111F5CF2091E80025FF0BC054
:1016300040E050E065E070E00E94380F8091E800E3
:101640008E778093E8000895CF93DF93EC0180912B
:10165000C701843039F581E08093E9008FEF9091E4
:10166000E800815095FD06C095ED9A95F1F70000D0
:101670008111F5CF8091E80085FF14C040E050E073
:1016800068E070E0CE010E94380F8091E8008E770C
:101690008093E80088E0FE01A9E4B1E001900D929A
:1016A0008A95E1F7DF91CF9108958AEE91E00E944B
:1016B000AC078091C601811109C00E94B60D0E943D
:1016C000130E8091E20084608093E200089586EE1C
:1016D00091E00E94AC071092C601089582EE91E05D
:1016E0000C94AC078EED91E00E94AC070C944F086F
:1016F0008AED91E00E94AC070C940B1F8091C7010A
:10170000843049F58091E9008F709091EC0090FF52
:1017100002C090E801C090E0982B84E08093E9003B
:101720008091EB0080FF14C08091EE0087FF10C015
:101730008091E80085FF03C01092F100F9CF8091FD
:10174000E80080FF05C08091E8008E778093E80074
:101750009F709093E900089542E061EC81E00E945F
:10176000300D42E061EC82E00E94300D42E061EC1D
:1017700083E00E94300D46E261EC84E00C94300D71
:101780008091C901833009F453C030F4813071F085
:10179000823009F491C008958A3009F47DC08B30FD
:1017A00009F45EC0893009F09FC020C08091C80153
:1017B000813A09F099C08091E800877F8093E80022
:1017C0008091CC019091CD01892B21F060E080E0E7
:1017D00090E003C068E089E491E070E00E94810F2E
:1017E0008091E8008B778093E80008958091C8018C
:1017F000813209F079C08091CC019091CD01892B83
:1018000009F072C08091E800877F8093E8008091A2
:10181000E80082FD05C08091C7018111F8CF64C046
:101820008091F100809351018091E8008B7758C03E
:101830008091C801813A09F057C08091CC01909104
:10184000CD01892B09F050C08091E800877F8093FB
:10185000E8008091E80080FFFCCF80910B013BC045
:101860008091C801813209F03FC08091CC019091F4
:10187000CD01892BC9F58091E800877F8093E8002E
:101880000E94650D9091CA0181E0911101C080E034
:1018900080930B010C941F178091C801813221F5B0
:1018A0008091E800877F8093E8000E94650D809119
:1018B000CB018093520108958091C801813AA1F42F
:1018C0008091E800877F8093E8008091E80080FFA6
:1018D000FCCF809152018093F1008091E8008E77D7
:1018E0008093E8000C94650D089584B7877F84BFCA
:1018F00088E10FB6F89480936000109260000FBEEC
:1019000090E080E80FB6F8948093610090936100B6
:101910000FBE0E94B60D0E94130E8091E2008460FB
:101920008093E20086E49AE00E944C1E78948091B5
:10193000C7018430E1F789EC91E00E94AC070E9476
:101940001D1281E091E00E948B1188EB91E00E94D2
:10195000AC078091C701853089F484EB91E00E9447
:10196000AC070E94D01E8091C501882391F30E948C
:10197000F61E882371F30E941A0DEBCF0E944B12C2
:10198000E8CF292F332723303105A9F06CF421301B
:10199000310509F442C02230310509F043C084E723
:1019A00090E02AE232E042C021323105C9F0223211
:1019B000310519F137C099278130910541F0823006
:1019C000910541F0892B71F5E6E2F2E005C0ECE00B
:1019D000F2E002C0EEEEF1E0849190E09F0126C0BB
:1019E000643000F5E62FF0E0EE0FFF1FE05EFE4FE3
:1019F0002081318189E090E019C0643098F4E62FAD
:101A0000F0E0DF01AA0FBB1FA85EBE4F2D913C91F5
:101A1000EC5EFE4F808190E009C082E190E02EE90B
:101A200032E004C080E090E020E030E0FA01318351
:101A30002083089580E189BD82E189BD09B400FE5B
:101A4000FDCF8091D8008F7D8093D8008091E000F9
:101A500082608093E0008091E00081FDFCCF0895DA
:101A6000982F973058F59093E900981739F07091B6
:101A7000EC002091ED005091F00003C0242F762F50
:101A800050E021FF19C03091EB003E7F3093EB0016
:101A90003091ED003D7F3093ED003091EB003160EF
:101AA0003093EB007093EC002093ED005093F00026
:101AB0002091EE0027FF07C09F5FD3CF8F708093E8
:101AC000E90081E0089580E008958091C80187FDD4
:101AD00005C08091E80080FF0EC012C08091E80030
:101AE00082FD05C08091C7018111F8CF08958091D2
:101AF000E8008B7708C08091C7018111EACF089573
:101B00008091E8008E778093E80008958091E4004A
:101B10009091E50045E62091EC0020FF21C0209146
:101B2000E80020FD21C02091C701222389F0253043
:101B300089F02091EB0025FD0FC02091E400309149
:101B4000E5002817390739F3415041F0C901E3CFC7
:101B500082E0089583E0089581E0089584E0089587
:101B60002091E80022FFDFCF80E008950E941F0E41
:101B70000E94270EE0EEF0E0808181608083E8ED36
:101B8000F0E080818F77808319BCA7EDB0E08C9165
:101B90008E7F8C9380818F7E80831092C601089502
:101BA0000F931F93CF93DF930E941F0E0E94270E67
:101BB000C8EDD0E088818F778883888180688883AA
:101BC00088818F7D888319BC1092C7011092C30150
:101BD0001092C5011092C40100EE10E0F80180815E
:101BE0008B7F808388818160888342E060E080E031
:101BF0000E94300DE1EEF0E080818E7F8083E2EE86
:101C0000F0E0808181608083808188608083F8013A
:101C100080818E7F8083888180618883DF91CF91EE
:101C20001F910F910895E7EDF0E08081816080833E
:101C300084E082BF81E08093C6010C94D00DE8ED72
:101C4000F0E080818E7F80831092E20008951092F0
:101C5000DA001092E10008951F920F920FB60F92D2
:101C600011242F933F934F935F936F937F938F93A1
:101C70009F93AF93BF93EF93FF938091E10082FF17
:101C80000BC08091E20082FF07C08091E1008B7F52
:101C90008093E1000E947E0B8091DA0080FF1FC0DC
:101CA0008091D80080FF1BC08091DA008E7F8093E6
:101CB000DA008091D90080FF0DC080E189BD82E10A
:101CC00089BD09B400FEFDCF81E08093C7010E9469
:101CD000550B05C019BC1092C7010E94670B80917B
:101CE000E10080FF19C08091E20080FF15C0809163
:101CF000E2008E7F8093E2008091E2008061809319
:101D0000E2008091D80080628093D80019BC85E001
:101D10008093C7010E94720B8091E10084FF2EC066
:101D20008091E20084FF2AC080E189BD82E189BD03
:101D300009B400FEFDCF8091D8008F7D8093D8003C
:101D40008091E1008F7E8093E1008091E2008F7EA0
:101D50008093E2008091E20081608093E2008091B4
:101D6000C301811104C08091E30087FF02C084E0B9
:101D700001C081E08093C7010E94780B8091E1004F
:101D800083FF29C08091E20083FF25C08091E1009C
:101D9000877F8093E10082E08093C7011092C301A6
:101DA0008091E1008E7F8093E1008091E2008E7F40
:101DB0008093E2008091E20080618093E20042E043
:101DC00060E080E00E94300D8091F0008860809398
:101DD000F0000E946E0BFF91EF91BF91AF919F9128
:101DE0008F917F916F915F914F913F912F910F90C4
:101DF0000FBE0F901F9018951F920F920FB60F9263
:101E000011242F933F934F935F936F937F938F93FF
:101E10009F93AF93BF93CF93EF93FF93C091E9004C
:101E2000CF708091EC001092E9008091F000877FE4
:101E30008093F00078940E943A101092E90080910B
:101E4000F00088608093F000C093E900FF91EF916B
:101E5000CF91BF91AF919F918F917F916F915F9142
:101E60004F913F912F910F900FBE0F901F9018959B
:101E7000CF92DF92EF92FF920F931F93CF93DF9356
:101E80007C018B01EA010E94860D811131C02097EF
:101E900031F088819981081B190BE80EF91EC12CBD
:101EA000D12C0115110519F18091E80085FD14C0B0
:101EB0008091E8008E778093E800209741F0888138
:101EC00099818C0D9D1D9983888385E011C00E94A6
:101ED000860D882331F30CC0F70181917F01809337
:101EE000F10001501109FFEFCF1ADF0ADACF80E0CD
:101EF000DF91CF911F910F91FF90EF90DF90CF90E6
:101F000008952091CE013091CF012617370748F070
:101F10006115710539F42091E8002E772093E800CF
:101F200001C0B901FC0120E061157105A9F18091A2
:101F3000C7018823E9F18530E9F18091E80083FD4C
:101F400035C08091E80082FF06C08091E80082FFE2
:101F500026C080E008958091E80080FFE5CF2091C1
:101F6000F3008091F20090E0922B6115710551F021
:101F70008830910538F421912093F1006150710966
:101F80000196F3CF21E0089709F020E08091E80066
:101F90008E778093E800C8CF2111C9CFD6CF80912A
:101FA000C701882329F0853081F604C081E00895B7
:101FB00082E0089583E008952091CE013091CF0111
:101FC0002617370748F06115710539F42091E800AC
:101FD0002E772093E80001C0B901FC0120E06115D3
:101FE0007105C1F18091C701882309F43FC0853094
:101FF00009F43EC08091E80083FD36C08091E8007E
:1020000082FF06C08091E80082FF27C080E008952B
:102010008091E80080FFE3CF2091F3008091F200EF
:1020200090E0922B6115710559F08830910540F4CC
:1020300024912093F1003196615071090196F2CFFD
:1020400021E0089709F020E08091E8008E778093E6
:10205000E800C5CF2111C6CFD5CF8091C701882315
:1020600029F0853079F604C081E0089582E0089572
:1020700083E008950F931F93CF93DF93CDB7DEB71F
:10208000AA970FB6F894DEBF0FBECDBFE8ECF1E023
:102090008091F100819321E0E03DF207C9F70E94B1
:1020A000C00B8091E80083FF1DC12091C8013091D1
:1020B000C901832F90E08A30910508F013C1FC011B
:1020C000EA5AFF4F0C94122C203881F0223809F084
:1020D00009C18091CC018F708093E9008091EB0061
:1020E00085FB882780F91092E90006C08091C40121
:1020F0009091C501911182609091E800977F909333
:10210000E8008093F1001092F100C6C0822F8D7F0D
:1021100009F0E8C0222319F0223061F0E3C0809179
:10212000CA01813009F0DEC0333009F080E08093CD
:10213000C50128C08091CA01811124C02091CC0121
:102140002F7009F4CFC02093E9008091EB0080FF4D
:1021500019C08091EB00333011F4806211C08061AE
:102160008093EB0081E090E0022E01C0880F0A947A
:10217000EAF78093EA001092EA008091EB00886011
:102180008093EB001092E9008091E800877F87C080
:102190002111A8C01091CA011F770FB7F894809140
:1021A000E800877F8093E8000E94650D8091E80039
:1021B00080FFFCCF8091E3008078812B8093E30047
:1021C00080688093E300112311F083E001C082E076
:1021D0008093C7010FBF86C02058223008F082C00C
:1021E0008091CA019091CB018C3D23E0920779F553
:1021F00083E08A838AE289834FB7F894DE011396DD
:1022000020E03EE051E2E32FF0E050935700E491EC
:1022100020FF03C0E295EF703F5FEF708E2F90E0DC
:10222000EA3010F0C79601C0C0968D939D932F5F42
:10223000243149F74FBF8091E800877F8093E80001
:102240006AE270E0CE0101960E94810F14C0AE01D7
:102250004F5F5F4F6091CC010E94C10C009709F461
:1022600041C02091E800277F2093E800BC018981CC
:102270009A810E94DC0F8091E8008B778093E800C0
:1022800031C0203879F58091E800877F8093E8009D
:102290008091C3018093F1008091E8008E77809354
:1022A000E8000E94650D1EC021111CC09091CA015A
:1022B0009230C0F48091E800877F8093E80090938B
:1022C000C3010E94650D8091C301811104C08091FA
:1022D000E30087FF02C084E001C081E08093C70172
:1022E0000E94AC0B8091E80083FF0AC08091EB0054
:1022F00080628093EB008091E800877F8093E80004
:10230000AA960FB6F894DEBF0FBECDBFDF91CF9176
:102310001F910F910895909358018093570108954C
:1023200080915701909158010895E0915701F091E3
:102330005801309721F00190F081E02D099480E060
:102340000895FF920F931F93CF93DF938C01E09139
:102350005701F0915801309799F10280F381E02DF7
:1023600009958091AF0182FF2BC080FF04C08AE9EC
:1023700093E00E94AC07E80188E0F82E04E913E03E
:102380008091AF0180FF0BC088811F928F931F93B4
:102390000F930E9445080F900F900F900F90FA94A2
:1023A0002196F110EDCF8091AF0180FF09C082E945
:1023B00093E0DF91CF911F910F91FF900C94AC07A8
:1023C000DF91CF911F910F91FF900895E0915701F8
:1023D000F0915801309721F00480F581E02D0994A7
:1023E000089520915501309156018217930771F09D
:1023F0009093560180935501E0915701F091580157
:10240000309721F00680F781E02D099408952091FE
:102410005301309154018217930771F09093540146
:1024200080935301E0915701F0915801309721F0CA
:102430000084F185E02D099408950E94361F0E94C2
:102440006F080C940320CF93C82F8091AF0182FFB7
:102450001EC080FF04C083EB93E00E94AC07809114
:10246000AF0180FF0CC01F92CF932EEA33E03F9361
:102470002F930E9445080F900F900F900F9080911E
:10248000AF0180FF04C08CEA93E00E94AC078C2F60
:10249000CF910C94420A5F926F927F928F929F929B
:1024A000AF92BF92CF92DF92EF92FF920F931F9362
:1024B000CF93DF93CDB7DEB72A970FB6F894DEBF80
:1024C0000FBECDBF0E9490089AE5C92E91E0D92E8B
:1024D00000E010E0AA24A394B12C502E802F0E947B
:1024E000F2093C01F601E190F1906F01E826F9262E
:1024F000E114F104B1F40F5F1F4F0530110569F7C6
:102500008FEF89838A831B820E943F1F8160782F0F
:102510009D838C8349815A816B818D810E94041334
:102520003AC08091AF0181FD0E94FB0920E030E0BC
:102530004501022E02C0880C991C0A94E2F7C401DE
:102540008E219F21892B09F12E835F8268207920BB
:1025500081E0672809F480E088870E943F1F81603E
:10256000782F9A8789874E815F8168858A850E9446
:102570000413F801EE0FFF1FE65AFE4F8081918190
:10258000882599259183808306C02F5F3F4F2F3088
:10259000310571F6B0CF0E946A23109159010E9453
:1025A00095111817D9F00E949511809359012A9618
:1025B0000FB6F894DEBF0FBECDBFDF91CF911F9154
:1025C0000F91FF90EF90DF90CF90BF90AF909F90D2
:1025D0008F907F906F905F900C9423122A960FB685
:1025E000F894DEBF0FBECDBFDF91CF911F910F9149
:1025F000FF90EF90DF90CF90BF90AF909F908F9023
:102600007F906F905F900895CF93DF93CDB7DEB743
:102610002B970FB6F894DEBF0FBECDBF4F83588700
:1026200069877A878B87DE01119686E0FD0111921A
:102630008A95E9F785E0FE01379601900D928A951B
:10264000E1F749815A816B817C818D819E810E9455
:10265000EB192B960FB6F894DEBF0FBECDBFDF91FE
:10266000CF910895CF93C82F882309F498C08CEF99
:102670008C0F813A48F48C2F0E946C2981118FC0F5
:102680008C2F0E94861C0CC080E28C0F883058F47E
:10269000C77081E001C0880FCA95EAF70E94C81C84
:1026A000CF910C94011D8BE58C0F833078F4C53AE3
:1026B00029F0C63A31F482E890E005C081E890E064
:1026C00002C083E890E0CF910C94F11188E58C0F63
:1026D000833108F064C0C83A39F1C93A41F1CA3AC5
:1026E00049F1CB3A51F1CC3A59F1CD3A61F1C03BC5
:1026F00069F1CE3A71F1CF3A79F1C13B81F1C23B38
:1027000089F1C33B91F1C43B99F1C53BA1F1C63BB3
:10271000A9F1C73BB1F1C83BB9F1C93BC1F1CA3B13
:10272000C9F58AE292E038C082EE90E035C089EEC9
:1027300090E032C08AEE90E02FC085EB90E02CC094
:1027400086EB90E029C087EB90E026C08CEC90E00F
:1027500023C08DEC90E020C083E891E01DC08AE8A2
:1027600091E01AC082E991E017C084E991E014C0B9
:1027700081E292E011C083E292E00EC084E292E036
:102780000BC085E292E008C086E292E005C087E2D5
:1027900092E002C080E090E0CF910C940712CF91BC
:1027A0000895882329F19CEF980F913A18F40E941C
:1027B000A71C0DC090E2980F983058F4877091E0F4
:1027C00001C0990F8A95EAF7892F0E94CE1C0C94BC
:1027D000011D9BE5980F933020F480E090E00C946D
:1027E000F111885A833120F480E090E00C940712B4
:1027F0000895882321F00E94C81C0C94011D08959F
:10280000882321F00E94CE1C0C94011D0895CF92C4
:10281000DF92EF92FF920F931F93CF93DF93CDB789
:10282000DEB728970FB6F894DEBF0FBECDBF8C0180
:1028300085E0F801DE01119601900D928A95E1F78D
:10284000F80140813181F280258122952F708381AA
:102850009481892B31F03F3F31F481E04F3F19F4EF
:1028600003C081E001C080E080FDC8C249833A8393
:1028700089819A812F830E94441C9E8388870E94AD
:10288000431C0E94161B4E81E42FE295EF70F0E08E
:10289000E05AFF4F2F8168850C94122C842F807F83
:1028A000142F1F70882311F01295107FFF2059F00C
:1028B000112309F458C2812F68870E94D81C0E94F6
:1028C000011D688550C2862F0E94D113112309F47F
:1028D00095C2812F0E94DE1C28960FB6F894DEBFA9
:1028E0000FBECDBFDF91CF911F910F91FF90EF9061
:1028F000DF90CF900C94011D342F307F842F8F7088
:10290000303211F08295807F662319F0613009F131
:102910002AC0FF20A1F0222381F1213071F52896F1
:102920000FB6F894DEBF0FBECDBFDF91CF911F91E0
:102930000F91FF90EF90DF90CF900C94E81C222332
:1029400019F0213009F45AC28E830E94EB1C8E814B
:102950008EC1FF2021F0263008F050C20EC0253075
:1029600008F04CC284C1FF20C1F0222331F0F801ED
:10297000958190FFF8C19F70958328960FB6F894C3
:10298000DEBF0FBECDBFDF91CF911F910F91FF90A2
:10299000EF90DF90CF900C94F913222309F467C1D4
:1029A000F6C1242F26952695237030E02115310598
:1029B00021F021303105C9F021C2FF2021F0862FFE
:1029C000942F937002C080E090E028960FB6F894A0
:1029D000DEBF0FBECDBFDF91CF911F910F91FF9052
:1029E000EF90DF90CF900C94F111FF2021F0862F13
:1029F000942F937002C080E090E028960FB6F89470
:102A0000DEBF0FBECDBFDF91CF911F910F91FF9021
:102A1000EF90DF90CF900C940712862FFF2019F0D3
:102A20000E94F02102C00E94582228960FB6F89406
:102A3000DEBF0FBECDBFDF91CF911F910F91FF90F1
:102A4000EF90DF90CF900C94DD22842F837009F0FB
:102A500076C0F110D3C1262F229526952770220F1C
:102A6000220F862F8F70C82ED12CE12CF12C022E34
:102A700004C0CC0CDD1CEE1CFF1C0A94D2F764FFD2
:102A800010C06FE070E080E090E004C0660F771F38
:102A9000881F991F2A95D2F760957095809590951B
:102AA00003C060E070E0CB01242F269526952370AB
:102AB000422F50E042305105D1F04330510559F1D9
:102AC0006C297D298E299F294130510541F1289695
:102AD0000FB6F894DEBF0FBECDBFDF91CF911F912F
:102AE0000F91FF90EF90DF90CF900C943B1B6C29DF
:102AF0007D298E299F2928960FB6F894DEBF0FBE38
:102B0000CDBFDF91CF911F910F91FF90EF90DF909C
:102B1000CF900C94551B0E943B1BC701B601289611
:102B20000FB6F894DEBF0FBECDBFDF91CF911F91DE
:102B30000F91FF90EF90DF90CF900C94211BFF201E
:102B400019F0842F817001C08695882309F456C13D
:102B5000262F229526952770220F220F862F8F7001
:102B6000C82ED12CE12CF12C022E04C0CC0CDD1C83
:102B7000EE1CFF1C0A94D2F764FF10C06FE070E0F7
:102B800080E090E004C0660F771F881F991F2A9588
:102B9000D2F7609570958095909503C060E070E0E5
:102BA000CB01242F269526952370422F50E04230EA
:102BB0005105D1F04330510559F16C297D298E29F9
:102BC0009F294130510541F128960FB6F894DEBF98
:102BD0000FBECDBFDF91CF911F910F91FF90EF906E
:102BE000DF90CF900C940F1C6C297D298E299F2992
:102BF00028960FB6F894DEBF0FBECDBFDF91CF9100
:102C00001F910F91FF90EF90DF90CF900C94291CB3
:102C10000E940F1CC701B60128960FB6F894DEBFBC
:102C20000FBECDBFDF91CF911F910F91FF90EF901D
:102C3000DF90CF900C94F51B603F49F118F4603E93
:102C400048F48CC0623F09F451C0E0F1633F09F4DD
:102C500061C084C0162F1F70842F8F71FF2021F058
:102C60000E948E1B812F89CE0E94AF1B812F289638
:102C70000FB6F894DEBF0FBECDBFDF91CF911F918D
:102C80000F91FF90EF90DF90CF900C940014FF20F5
:102C9000A9F0253008F0B2C0842F8F7128960FB6A6
:102CA000F894DEBF0FBECDBFDF91CF911F910F9182
:102CB000FF90EF90DF90CF900C94D41B263008F05B
:102CC0009DC0EACFFF20A1F0842F8F7128960FB608
:102CD000F894DEBF0FBECDBFDF91CF911F910F9152
:102CE000FF90EF90DF90CF900C948E1BFF2061F34C
:102CF000842F8F7128960FB6F894DEBF0FBECDBF1C
:102D0000DF91CF911F910F91FF90EF90DF90CF90C7
:102D10000C94AF1BFF2091F0842F8F7128960FB673
:102D2000F894DEBF0FBECDBFDF91CF911F910F9101
:102D3000FF90EF90DF90CF900C94791B28960FB600
:102D4000F894DEBF0FBECDBFDF91CF911F910F91E1
:102D5000FF90EF90DF90CF900C946F1BFF20A1F0BD
:102D6000222309F4B1CF862F28960FB6F894DEBF40
:102D70000FBECDBFDF91CF911F910F91FF90EF90CC
:102D8000DF90CF900C943213222309F4B1CF862F19
:102D900028960FB6F894DEBF0FBECDBFDF91CF915E
:102DA0001F910F91FF90EF90DF90CF900C94D11373
:102DB0004F70C8010E94481E28960FB6F894DEBFD7
:102DC0000FBECDBFDF91CF911F910F91FF90EF907C
:102DD000DF90CF900C94981A4F70C80128960FB6C8
:102DE000F894DEBF0FBECDBFDF91CF911F910F9141
:102DF000FF90EF90DF90CF900C944B1E28960FB66B
:102E0000F894DEBF0FBECDBFDF91CF911F910F9120
:102E1000FF90EF90DF90CF9008950E94E51C0E94F4
:102E2000BA1C0E94011D0E940B240E94DD2280E03A
:102E300090E00E94F11180E090E00C9407120E9453
:102E4000D51C0C940D170E94441C292F22952F701D
:102E500030E02C3031054CF42A3031056CF422502E
:102E600031092230310590F407C02C30310551F082
:102E70002F30310539F00AC0803E10F0803F31F428
:102E800081E0089593FB882780F9089580E00895F4
:102E9000CF93DF9300D000D01F92CDB7DEB70F9055
:102EA0000F900F900F900F90DF91CF910895CF93D7
:102EB000DF9300D000D000D0CDB7DEB726960FB696
:102EC000F894DEBF0FBECDBFDF91CF9108951F9361
:102ED000CF93DF93C091640116E080916501C8171C
:102EE00099F0D0E01C9FF0011D9FF00D1124EA59CC
:102EF000FE4F4081518162817381848195810E945E
:102F000057172196C770E9CFDF91CF911F91089590
:102F100040919601509197016091980170919901AB
:102F200080919A0190919B010C945717CF938091B7
:102F30009B0182958F7009F05FC080919801882372
:102F400009F45AC020916401A09165016091960135
:102F5000709197018091990190919A0131E06F3FB2
:102F600009F030E0B32FC6E02A1709F445C00097F6
:102F700021F07F3F21F44B2F03C041E001C040E02E
:102F800030E040FD35C0C29FF001C39FF00D112419
:102F9000EA59FE4F418174132BC04081641328C04D
:102FA0004281411125C0438154814817590710F4CB
:102FB00041505109481B590B483C5105C8F48091B8
:102FC0009B018F70806180939B0186E0829FF0015E
:102FD000839FF00D1124E559FE4F80818F70806131
:102FE000808386E991E00E940714CF910C946717C3
:102FF0002F5F3F4F2770B8CFCF910895CF92DF92C8
:10300000EF92FF920F931F93CF93DF93CDB7DEB76D
:1030100062970FB6F894DEBF0FBECDBF8C0185E07E
:10302000F801DE011D9601900D928A95E1F7D80115
:103030004C9111965C91119712966C911297139680
:10304000ED90FC90149770919601E091970120917A
:10305000990130919A012115310531F0EF3F31F49A
:1030600081E07F3F19F403C081E001C080E0B82F08
:10307000B170CB2E80FD6CC1D0909801DD2009F499
:10308000F5C0F0919B01E216F30638F0C701821BF0
:10309000930B883C910548F09BC0209530952E0DF0
:1030A0003F1D283C310508F093C08F2F807F09F029
:1030B00052C0E51314C0741312C0D62E61110FC094
:1030C000FF70F061F0939B010E94881786E991E000
:1030D0000E94071480919B01F80185836CC1EF2841
:1030E00031F05F3F31F481E04F3F19F403C081E0DC
:1030F00001C080E080FD03C081E0862701C080E040
:10310000F82FF170FF2E80FF1CC080916401209188
:10311000650136E0821709F428C190E0389FF0017C
:10312000399FF00D1124EA59FE4F7181571306C0E3
:103130007081471303C07281671303C001968770C3
:10314000E9CFD62E662309F436C180919B018160B8
:1031500080939B0153C0E51308C0741306C061112E
:1031600004C0D8011596FC93AEC04D875E878D854F
:103170009E856A8B0E9423176A89882329F1D62E9F
:10318000662311F120919B01822F82958F7090E030
:1031900002970CF460C080919601909197019887F6
:1031A0008F831986FB86EA862C87CE01079651C04D
:1031B000E51731F14D875E878D859E856A8B0E946C
:1031C00023176A8981112EC0C8010E940714A4C068
:1031D0008F2F807F69F77E2DF98AE88A89890E947E
:1031E000481786E991E00E940714E6E9F1E086E0DD
:1031F000DF011D928A95E9F70E948817D12CDBC068
:103200007413D8CF6111D6CFD8011596FC93C8019D
:103210000E940714E6E9F1E086E0DF011D928A953D
:10322000E9F7C9C0D62E662379F220919B01822F3F
:1032300082958F7090E0029774F080919601909142
:1032400097019A8389831B82FD82EC822E83CE01B3
:1032500001960E94071486E0F801A6E9B1E001900A
:103260000D928A95E1F70E9496176FC0E216F30659
:1032700028F0C701821B930B9C0104C02095309558
:103280002E0D3F1D283C310508F052C0D62E662376
:1032900009F49ACFE5132CC074132AC080919B01C6
:1032A00080FD1DC0982F92959F70C9F0D80115968A
:1032B0008C9315979F3039F09F5F9295907F8F7018
:1032C000892B15968C93C8010E94071486E0F8019B
:1032D000A6E9B1E001900D928A95E1F736C086E04B
:1032E000F801A6E9B1E001900D928A95E1F763C07B
:1032F0004D875E878D859E850E942317882379F0F0
:1033000086E0F801A6E9B1E001900D928A95E1F717
:103310000E9496170E948817DD24D3944CC0809198
:103320009B01816080939B01C8010E94071443C0E8
:103330007E2DF98AE88A89890E944817E6E9F1E03A
:1033400086E0DF011D928A95E9F70E94881733C055
:10335000662309F439CF4D875E878D859E850E944F
:103360002317882309F430CFCBCF4D875E878D8517
:103370009E850E94441C292F22952F7030E0223018
:1033800031052CF49F7041F0811106C00CC024302F
:1033900031052CF49F7049F4805E883020F0C8011C
:1033A0000E940714CF2CDC2C06C0D80115969C91E6
:1033B000907F91F7F8CF8D2D62960FB6F894DEBF0F
:1033C0000FBECDBFDF91CF911F910F91FF90EF9076
:1033D000DF90CF9008951F93CF93DF93CDB7DEB7E3
:1033E0002C970FB6F894DEBF0FBECDBF4F83588722
:1033F00069877A878B879C87CE0107960E94FE1784
:103400008823C1F02F8138858A859B85892B31F0EF
:103410003F3F11F080E003C02F3FE1F781E08111D1
:1034200047C04F81588569857A858B859C850E9428
:1034300057173EC086E0FE013796DE0111960190D7
:103440000D928A95E1F7FF81E8854A855B854115F4
:10345000510531F0EF3F31F481E0FF3F19F403C033
:1034600081E001C080E080FD23C02091650130E053
:10347000C9010196877099276091640170E08617F1
:103480009707F1F1F983EA835D834C8396E0929F7D
:10349000D001939FB00D1124AA59BE4FFE01319661
:1034A00001900D929A95E1F7809365010E9467174C
:1034B00016E08091640190916501891779F1189F58
:1034C000C00111248A599E4F0E94FE17882331F1B2
:1034D000E09164011E9FF0011124EA59FE4F4081E2
:1034E000518162817381848195810E9457178091F7
:1034F000640190E001968770992780936401D9CF89
:103500000E941F171092650110926401E6E9F1E034
:1035100086E0DF011D928A95E9F7CACF2C960FB697
:10352000F894DEBF0FBECDBFDF91CF911F910895FC
:10353000EF92FF920F931F93CF93DF93FC010097BD
:1035400009F46DC0F12CEE24E394EF0121968491EF
:10355000843740F4843008F053C0813081F08230E9
:1035600021F15DC0853709F445C0B0F19CE7980FA3
:10357000903708F054C08F770E94D11343C08F0159
:103580000E5F1F4FFE01849190E2980F983050F427
:103590008770FE2D01C0FF0F8A95EAF78F2F0E94DA
:1035A000D81C15C00E94321312C08F010E5F1F4F2E
:1035B000FE01849190E2980F983058F48770FE2DA8
:1035C00001C0FF0F8A95EAF78F2F0E94DE1CE801E9
:1035D00019C00E94D113FBCFCF010296FE01C49106
:1035E000CC2361F0EFE9FFE03197F1F700C0000074
:1035F000C150F6CFCF010296FE01F490EC0102C05B
:103600000E9432138F2D882341F0EFE9FFE03197BC
:10361000F1F700C000008150F6CFFE0196CFDF9198
:10362000CF911F910F91FF90EF90089508956093AF
:10363000A0017093A1018093A2019093A3010C9427
:103640000D170F931F930091A0011091A1012091DC
:10365000A2013091A301062B172B282B392B0093A5
:10366000A0011093A1012093A2013093A3011F9107
:103670000F910C940D170F931F930091A0011091BF
:10368000A1012091A2013091A30106231723282331
:1036900039230093A0011093A1012093A20130933C
:1036A000A3011F910F910C940D170F931F9300917D
:1036B000A0011091A1012091A2013091A301062740
:1036C0001727282739270093A0011093A1012093E1
:1036D000A2013093A3011F910F910C940D1710922A
:1036E0009C0110929D0110929E0110929F010C94DA
:1036F0000D1741E050E060E070E004C0440F551F3A
:10370000661F771F8A95D2F740939C0150939D01C5
:1037100060939E0170939F010C940D1741E050E05F
:1037200060E070E004C0440F551F661F771F8A9544
:10373000D2F780919C0190919D01A0919E01B09142
:103740009F01842B952BA62BB72B80939C019093E4
:103750009D01A0939E01B0939F010C940D1741E031
:1037600050E060E070E004C0440F551F661F771FF3
:103770008A95D2F7409550956095709580919C01FF
:1037800090919D01A0919E01B0919F01842395236A
:10379000A623B72380939C0190939D01A0939E0143
:1037A000B0939F010C940D1741E050E060E070E091
:1037B00004C0440F551F661F771F8A95D2F780916A
:1037C0009C0190919D01A0919E01B0919F01842741
:1037D0009527A627B72780939C0190939D01A093DE
:1037E0009E01B0939F010C940D170F931F930091AE
:1037F0009C0110919D0120919E0130919F01062B0B
:10380000172B282B392B00939C0110939D0120939B
:103810009E0130939F011F910F910C940D170F93F0
:103820001F9300919C0110919D0120919E01309168
:103830009F01062317232823392300939C0110930B
:103840009D0120939E0130939F011F910F910C9435
:103850000D170F931F9300919C0110919D012091D2
:103860009E0130919F0106271727282739270093AB
:103870009C0110939D0120939E0130939F011F9105
:103880000F910C940D170895CF92DF92EF92FF9253
:103890000F931F93CF93DF93EC01C090A001D090C2
:1038A000A101E090A201F090A30180919C01909170
:1038B0009D01A0919E01B0919F01C82AD92AEA2AB0
:1038C000FB2A0FE110E0B701A601002E04C0769597
:1038D0006795579547950A94D2F740FF07C0BE01F8
:1038E000802F0E94D51D8130910539F401501109B6
:1038F00050F7BE0180E00E94D51DDF91CF911F914E
:103900000F91FF90EF90DF90CF90089540910C01C0
:1039100050910D0120E030E09FEFFA01E20FF31F1C
:103920006281681799F09F3F19F4611101C0922FCD
:103930002F5F3F4F2630310581F79F3F39F0FA0165
:10394000E90FF11D97FDFA9582830895089540913E
:103950000C0150910D0120E030E0FA01E20FF31F5D
:103960009281981301C012822F5F3F4F263031059C
:10397000A1F7089581E090E0E0910C01F0910D0134
:10398000E80FF91F1082019688309105A9F7089574
:103990009091AE01982B9093AE01089580959091EF
:1039A000AE0198239093AE0108951092AE01089550
:1039B0009091AD01982B9093AD01089580959091D1
:1039C000AD0198239093AD0108951092AD01089533
:1039D0008093A40108951092A401089540910C01D0
:1039E00050910D0120E030E080E0FA01E20FF31F7A
:1039F000918191118F5F2F5F3F4F27303105A9F7DC
:103A00000895E0910C01F0910D018091AE01808349
:103A1000E0910C01F0910D0180819091AD01892B15
:103A200080839091A401992361F0E0910C01F091C1
:103A30000D018081892B80830E94EE1C81111092E0
:103A4000A40180910C0190910D010C94A1118D3B6A
:103A500060F4883A00F5853AA8F4843088F481301F
:103A600009F05BC081E090E00895803E08F455C005
:103A7000883E30F0803F08F450C090E09065089593
:103A800090E00895853A09F44BC0863A09F04BC09E
:103A900082E890E40895883A09F448C0893A09F424
:103AA00048C08A3A09F448C08B3A09F448C08C3AB5
:103AB00009F448C08B3B09F448C08C3B09F448C06A
:103AC0008D3A09F448C0803B09F448C08E3A09F4A5
:103AD00048C08F3A09F448C0813B09F448C0823B92
:103AE00009F448C0833B09F448C0843B09F448C04A
:103AF000853B09F448C0863B09F448C0873B09F47C
:103B000048C0883B09F448C0893B09F448C08A3B57
:103B100009F048C08AE296E4089580E090E00895B4
:103B200081E890E4089583E890E4089582EE94E4B7
:103B3000089589EE94E408958AEE94E4089585EB5F
:103B400094E4089586EB94E4089583EB94E4089557
:103B500084EB94E4089587EB94E408958CEC94E46A
:103B600008958DEC94E4089583E895E408958AE837
:103B700095E4089582E995E4089584E995E408952B
:103B800081E296E4089583E296E4089584E296E45F
:103B9000089585E296E4089586E296E4089587E222
:103BA00096E4089580E094E408950E945008803ED1
:103BB000A8F4803C00F5813309F45CC038F4893204
:103BC00009F452C08A3209F45BC05FC08933B1F096
:103BD0008238A1F0853309F441C057C0833E41F1DA
:103BE00028F4803E99F0823EB9F04FC0863E31F114
:103BF000873E71F14AC00E945F0808959091C2010A
:103C000090FD02C091FF41C080EE3FC08091C20193
:103C100080FFFACF89E339C08091C20182FF0CC0D6
:103C20008091C20184FF02C080E02FC083EE2DC0CE
:103C30008091C20182FFF4CF82EE27C08091C20141
:103C400083FF0AC08091C20184FDEECF87EE1DC0C4
:103C50008091C20183FFF6CF86EE17C08091C2012A
:103C600085FF06C089E211C08091C20185FFFACFAD
:103C700085E30BC08091C20186FF06C08AE205C0C1
:103C80008091C20186FFFACF81E30E94271D08952B
:103C900080E090E00895089590933301809332017D
:103CA0000895CF92DF92EF92FF920F931F936C01D2
:103CB000EE24FF24C114D104E104F10421F46B01CA
:103CC0007C0180E001C080E133272F2D1E2D0D2DBA
:103CD000011511052105310519F0885F6801790189
:103CE00097018601A4E03695279517950795AA9523
:103CF000D1F7011511052105310519F08C5F680117
:103D0000790197018601F2E0369527951795079579
:103D1000FA95D1F7011511052105310519F08E5FCE
:103D200068017901B701A601769567955795479582
:103D3000452B462B472B09F08F5F1F910F91FF906A
:103D4000EF90DF90CF9008958295982F9C7C969568
:103D50009695837344E0849F90011124922B892FC0
:103D60008A7A86959575990F892B08951F93CF931D
:103D7000DF931F92CDB7DEB799830E94A41E182F40
:103D80009981892F0E94A41E212F30E0322F2227F3
:103D9000A901482BCA010F90DF91CF911F9108957F
:103DA0008091C701843009F11092B00120E488E1CC
:103DB00090E00FB6F894A895809360000FBE209312
:103DC000600083B7817F846083BF83B7816083BFD6
:103DD0007894889583B78E7F83BF88E10FB6F89477
:103DE00080936000109260000FBE0895CF930E94F0
:103DF0004E080E9490080E944F08C0E08C2F0E943D
:103E0000F209892B29F4CF5FC530C1F780E001C0EA
:103E100081E0CF9108950C941F171F920F920FB657
:103E20000F9211248F939F93AF93BF938091B00112
:103E3000811113C08091B1019091B201A091B301A1
:103E4000B091B4014196A11DB11D8093B101909331
:103E5000B201A093B301B093B401BF91AF919F9110
:103E60008F910F900FBE0F901F90189582E084BD28
:103E700093E095BD9AEF97BD80936E0008952FB79C
:103E8000F8948091B1019091B201A091B301B091E9
:103E9000B4012FBF0895CF92DF92EF92FF920F935C
:103EA0001F932FB7F8944091B1015091B2016091E6
:103EB000B3017091B4012FBF6A017B01EE24FF248E
:103EC0008C0120E030E0C016D106E206F30610F4C3
:103ED00041505109481B590BCA011F910F91FF9086
:103EE000EF90DF90CF9008951F920F920FB60F9230
:103EF00011248F939F93AF93BF938091B1019091C1
:103F0000B201A091B301B091B4010196A11DB11D00
:103F10008093B1019093B201A093B301B093B40127
:103F2000BF91AF919F918F910F900FBE0F901F90F7
:103F300018950E94B60DF8942FEF87EA91E621506C
:103F400080409040E1F700C0000087E090EBDC018A
:103F50008093D0019093D101A093D201B093D3016B
:103F60002CE088E190E00FB6F894A895809360006B
:103F70000FBE20936000FFCFCF92DF92EF92FF92AF
:103F80000F931F93CF93DF93C82ED12C01E010E045
:103F90008D2D0E94F2097C01C0E0D0E098010C2E2A
:103FA00002C0220F331F0A94E2F72E213F21232B58
:103FB00029F42196CF30D10589F709C06C2F7D2DCA
:103FC00080E00E945008C812F4CF81E005C0D3946D
:103FD00085E0D812DDCF80E0DF91CF911F910F9166
:103FE000FF90EF90DF90CF900895CF93C82F8CE291
:103FF0000E94BC1F882321F08C2FCF910C94BC1FF2
:1040000080E0CF910895CF930E944921811102C091
:104010000E942F218DEC93E00E94AC07C5E6C150B1
:1040200049F00E9490088FE39CE90197F1F700C0E6
:104030000000F5CF86EC93E00E94AC0789E20E9475
:10404000F51F81110AC18AE20E94F51F81110E94A9
:104050002F2185E00E94F51F81110E94991F0E9467
:1040600054218093AF0187E00E94F51F882399F1C6
:104070008BE10E94F51F882351F09091AF0191FBD5
:10408000882780F921E0822780FB91F922C08EE009
:104090000E94F51F882351F09091AF0192FB882771
:1040A00080F921E0822780FB92F913C080E10E9411
:1040B000F51F9091AF01882341F093FB882780F989
:1040C00021E0822780FB93F904C0892F809580FB33
:1040D00090F99093AF018091AF010E9458210E9406
:1040E00066218093C20180EE0E94F51F882341F073
:1040F0008091C201982F909590FB80F98093C20126
:1041000089E30E94F51F882359F09091C20191FB29
:10411000882780F921E0822780FB91F99093C201E2
:1041200082EE0E94F51F882359F09091C20192FB04
:10413000882780F921E0822780FB92F99093C201C1
:1041400086EE0E94F51F882359F09091C20193FBDF
:10415000882780F921E0822780FB93F99093C201A0
:1041600083EE0E94F51F882359F09091C20194FBC1
:10417000882780F921E0822780FB94F99093C2017F
:1041800085E30E94F51F882359F09091C20195FBA9
:10419000882780F921E0822780FB95F99093C2015E
:1041A00081E30E94F51F882359F09091C20196FB8C
:1041B000882780F921E0822780FB96F99093C2013D
:1041C00081E10E94F51F882359F09091C20197FB6D
:1041D000882780F921E0822780FB97F99093C2011C
:1041E0008091C2010E946A2187E20E94F51FC82FB8
:1041F0008EE10E94F51F8111C2608FE10E94F51FC0
:104200008111C46080E20E94F51F8111C86081E2C3
:104210000E94F51F8111C06182E20E94F51F811189
:10422000C06283E20E94F51F8111C06484E20E9493
:10423000F51F882311F0C06802C0CC2329F08C2F11
:104240000E9461216C2F03C00E945D21682F70E0E5
:1042500080E090E0CF910C94171BCF9108956DEE04
:104260007EEF80E090E00E94482C60E082E090E0E9
:104270000E943A2C60E083E090E00E943A2C60E0DB
:1042800084E090E00E943A2C60E085E090E00C949D
:104290003A2C80E090E00E94342C21E08D3E9E4F2D
:1042A00009F020E0822F089582E090E00C942C2CFD
:1042B000682F82E090E00C943A2C83E090E00C941C
:1042C0002C2C682F83E090E00C943A2C84E090E052
:1042D0000C942C2C682F84E090E00C943A2C809164
:1042E000B70180FF0BC06091110185E0689FB001AC
:1042F000112475956795759567952AC081FF09C04A
:104300006091110185E0689FB00111247595679552
:104310001FC082FF07C06091110185E0689FB00156
:10432000112416C04091B8014423C9F060911001D6
:10433000461788F72091110185E0289F90011124EC
:10434000429FC001439F900D112470E00E94FE2BFC
:104350006038710540F46115710539F002C065E0FF
:1043600070E0862F08958FE7089581E00895809189
:10437000B70180FF08C060910F0170E075956795E7
:104380007595679521C081FF06C060910F0170E0AF
:104390007595679519C082FF04C060910F0170E0A8
:1043A00010C08091B8018823C1F060910E0186177A
:1043B000A0F790910F01989FC001112470E00E9416
:1043C000FE2B6038710528F46115710521F0862FE8
:1043D00008958FE7089581E0089561E070E0F4CFDB
:1043E000803F21F40E946F21819504C0813F29F410
:1043F0000E946F218093BB010895823F21F40E94A7
:104400006F21819504C0833F29F40E946F2180931E
:10441000BA010895893F19F40E94B72105C08A3F67
:1044200031F40E94B72181958093BC0108958B3FA0
:1044300021F40E94B721819504C08C3F29F40E9489
:10444000B7218093BD010895843F21F48091B90183
:10445000816017C0853F21F48091B901826011C04D
:10446000863F21F48091B90184600BC0873F21F41D
:104470008091B901886005C0883F31F48091B9010D
:1044800080618093B90108958D3F21F48091B70137
:1044900081600BC08E3F21F48091B701826005C01E
:1044A0008F3F29F48091B70184608093B70108950C
:1044B000803F39F48091BB0187FF6CC01092BB0133
:1044C00069C0813F29F48091BB011816BCF362C01A
:1044D0009091BA01823F29F497FF5CC01092BA0113
:1044E00059C0833F19F41916CCF354C0893F41F4E5
:1044F0008091BC0118160CF04DC01092BC014AC04E
:104500008A3F29F48091BC0187FF44C0F6CF8B3FDE
:1045100039F48091BD0187FF3DC01092BD013AC0C2
:104520008C3F29F48091BD011816BCF333C0843F41
:1045300021F48091B9018E7F17C0853F21F48091CD
:10454000B9018D7F11C0863F21F48091B9018B7F25
:104550000BC0873F21F48091B901877F05C0883F58
:1045600031F48091B9018F7E8093B90113C08D3FE2
:1045700021F48091B7018E7F0BC08E3F21F4809192
:10458000B7018D7F05C08F3F29F48091B7018B7FE4
:104590008093B7018091BA0181110EC08091BB0157
:1045A00081110AC08091BC01811106C08091BD01BA
:1045B000811102C01092B80108958091AF0183FF6C
:1045C0007EC089E094E00E94AC078091B9011F92FF
:1045D0008F9384E094E09F938F930E94450882E03C
:1045E00094E00E94AC072091BA01822F992787FDA1
:1045F00090959F932F938FEF93E09F938F930E94BB
:1046000045088DEF93E00E94AC072091BB01822FFB
:10461000992787FD90959F932F938AEF93E09F931F
:104620008F930E94450888EF93E00E94AC07209189
:10463000BC01822F992787FD90959F932F9385EF3B
:1046400093E09F938F930E94450883EF93E00E942D
:10465000AC072091BD01822F992787FD90959F93EC
:104660002F9380EF93E09F938F930E9445088DEEE8
:1046700093E00E94AC078091B8011F928F938AEE5D
:1046800093E09F938F930E94450888EE93E00E94E9
:10469000AC078091B7011F928F9385EE93E09F93B3
:1046A0008F930E94450882EE93E00E94AC078DB77D
:1046B0009EB74C960FB6F8949EBF0FBE8DBF89EB88
:1046C00091E00E94E6110E943F1F9093B6018093F3
:1046D000B50108951F93CF93DF938091B501909119
:1046E000B6010E944B1F4091B801442321F0209154
:1046F000120130E006C0209113015AE0259F90017D
:1047000011248217930708F482C08091BA01109196
:10471000BB01D091BC01C091BD01811107C0111135
:1047200005C0D11103C0CC2309F471C04F3F19F06B
:104730004F5F4093B801181624F40E946F218093B4
:10474000BA018091BA0187FF05C00E946F2181954F
:104750008093BA01111624F40E946F218093BB014B
:104760008091BB0187FF05C00E946F2181958093D6
:10477000BB016091BA01662339F11091BB0111238D
:1047800019F1772767FD7095872F972F0E940F2BC0
:1047900023E333E343E35FE30E94732B0E94DC2AAD
:1047A0006093BA01612F772767FD7095872F972F48
:1047B0000E940F2B23E333E343E35FE30E94732B59
:1047C0000E94DC2A6093BB011D1624F40E94B721CD
:1047D0008093BC018091BC0187FF05C00E94B72176
:1047E00081958093BC011C1624F40E94B72180930C
:1047F000BD018091BD0187FF05C00E94B721819551
:104800008093BD01DF91CF911F910C94DD22DF9148
:10481000CF911F910895E9EBF1E085E0DF011D9252
:104820008A95E9F71092B8011092B701089588EDC2
:1048300098E00E94AC078BEC98E00E94AC078EEBEE
:1048400098E00C94AC078BE398E00E94AC078EE2F2
:1048500098E00E94AC0783E198E00E94AC0788EFE3
:1048600097E00E94AC0780EE97E00E94AC0786ECD0
:1048700097E00E94AC0788EA97E00E94AC0788E8BE
:1048800097E00E94AC0783E797E00E94AC078CE5B5
:1048900097E00E94AC078FE397E00E94AC0780E2AC
:1048A00097E00E94AC0780E097E00E94AC078EED95
:1048B00096E00E94AC0789EA96E00E94AC0784E982
:1048C00096E00E94AC071F9285E08F9381E996E005
:1048D0009F938F930E94450888E896E00E94AC075A
:1048E0001F9281E08F9385E896E09F938F930E94BB
:1048F000450883E896E00E94AC078DB79EB70896FE
:104900000FB6F8949EBF0FBE8DBF86E596E00C945F
:10491000AC07833009F459C028F4813061F082304B
:1049200079F10895853009F49AC008F473C086308F
:1049300009F4BAC0089520911301862F90E0820FE8
:10494000911D8F3F910520F4620F6093130103C006
:104950008FEF8093130182E395E00E94AC07809172
:1049600013011F928F938FE295E09F938F930E9484
:1049700045080F900F900F900F908DE295E0B8C012
:1049800020911201862F90E0820F911D8F3F91059B
:1049900020F4620F6093120103C08FEF8093120125
:1049A0008EE195E00E94AC07809112011F928F93D7
:1049B0008BE195E09F938F930E9445080F900F9095
:1049C0000F900F9089E195E093C020911101862FFF
:1049D00090E0820F911D8F3F910520F4620F60934C
:1049E000110103C08FEF8093110189E095E00E94CF
:1049F000AC07809111011F928F9386E095E09F9301
:104A00008F930E9445080F900F900F900F9084E0B5
:104A100095E06EC020911001862F90E0820F911DCD
:104A20008F3F910520F4620F6093100103C08FEF58
:104A30008093100182EF94E00E94AC0780911001F6
:104A40001F928F938FEE94E09F938F930E9445085F
:104A50000F900F900F900F908DEE94E049C0209131
:104A60000F01862F90E0820F911D8F3F910520F45A
:104A7000620F60930F0103C08FEF80930F0187EDEA
:104A800094E00E94AC0780910F011F928F9384EDF8
:104A900094E09F938F930E9445080F900F900F9082
:104AA0000F9082ED94E024C020910E01862F90E0BB
:104AB000820F911D8F3F910520F4620F60930E01CC
:104AC00003C08FEF80930E018AEB94E00E94AC0745
:104AD00080910E011F928F9387EB94E09F938F93A9
:104AE0000E9445080F900F900F900F9085EB94E077
:104AF0000C94AC07833009F44DC028F4813061F088
:104B0000823049F10895853009F482C008F461C00B
:104B1000863009F49CC0089580911301681720F431
:104B2000861B8093130102C01092130189EA94E05E
:104B30000E94AC07809113011F928F9386EA94E044
:104B40009F938F930E9445080F900F900F900F90A6
:104B500084EA94E09AC080911201681720F4861BC1
:104B60008093120102C01092120185E994E00E9424
:104B7000AC07809112011F928F9382E994E09F937A
:104B80008F930E9445080F900F900F900F9080E92F
:104B900094E07BC080911101681720F4861B8093FC
:104BA000110102C01092110180E894E00E94AC074C
:104BB000809111011F928F938DE794E09F938F93C3
:104BC0000E9445080F900F900F900F908BE794E094
:104BD0005CC080911001681720F4861B809310013F
:104BE00002C01092100189E694E00E94AC07809107
:104BF00010011F928F9386E694E09F938F930E94FB
:104C000045080F900F900F900F9084E694E03DC000
:104C100080910F01681720F4861B80930F0102C05A
:104C200010920F018EE494E00E94AC0780910F0176
:104C30001F928F938BE494E09F938F930E9445087B
:104C40000F900F900F900F9089E494E01EC0809118
:104C50000E01681720F4861B80930E0102C010928B
:104C60000E0181E394E00E94AC0780910E011F9237
:104C70008F938EE294E09F938F930E9445080F904C
:104C80000F900F900F908CE294E00C94AC07CF93B0
:104C9000C82F87EA98E00E94AC076091A00170914C
:104CA000A1018091A2019091A3010E94511E1F9227
:104CB0008F9324EA38E03F932F930E9445088FE9B1
:104CC00098E00E94AC071F92CF932CE938E03F9305
:104CD0002F930E9445088AE998E00E94AC0761E0A2
:104CE00070E080E090E004C0660F771F881F991F76
:104CF000CA95D2F70E94171B8DB79EB708960FB6BC
:104D0000F8949EBF0FBE8DBFCF910C941F17CF9309
:104D1000873208F065C08E3108F0CCC28E3009F4BD
:104D20004FC210F5873009F41FC2B8F4863009F07D
:104D3000C7C28091AF01817F8E7F8093AF010E94B7
:104D400017248FE79EE00E94AC078BE79EE00E944D
:104D5000AC0781E08093C101BEC1883009F46FC007
:104D60008B3009F4BAC1ACC2873109F46DC288F541
:104D7000803109F438C2863109F0A2C28BE49CE08C
:104D80000E94AC070E9495111F928F9381E39CE0D3
:104D90009F938F930E94450880910B011F928F93E0
:104DA0008AE19CE09F938F930E9445088091520175
:104DB0001F928F9387E09CE09F938F930E944508FA
:104DC0008DB79EB70C960FB6F8949EBF0FBE8DBFE1
:104DD00082C1893109F421C28B3109F4DEC170C26C
:104DE000893309F45BC178F4893209F461C220F493
:104DF000873209F45DC264C2853309F459C288332D
:104E000009F46BC15DC2863409F437C208F454C298
:104E1000883409F055C20E941F1782E69EE00E9466
:104E2000AC079FEF23ED80E3915020408040E1F7F5
:104E300000C000000E94991F82E59EE04AC188EAF6
:104E40009EE00E94AC0785EF9BE00E94AC070E94A9
:104E50005D211F928F9382EF9BE09F938F930E941F
:104E6000450880EF9BE00E94AC070E945421C82FA8
:104E70008DED9BE00E94AC071F92CF9328ED3BE0A5
:104E80003F932F930E94450886ED9BE00E94AC075C
:104E90008CEC9BE00E94AC078C2F81701F928F934B
:104EA00029EC3BE03F932F930E94450887EC9BE061
:104EB0000E94AC078DEB9BE00E94AC07C1FB8827EA
:104EC00080F91F928F932AEB3BE03F932F930E9430
:104ED000450888EB9BE00E94AC078CEA9BE00E94AF
:104EE000AC07C2FB882780F91F928F9329EA3BE029
:104EF0003F932F930E94450887EA9BE00E94AC07EE
:104F00008EE99BE00E94AC07C3FBCC27C0F91F923F
:104F1000CF938BE99BE09F938F930E94450889E98B
:104F20009BE00E94AC070E946621C82F85E89BE0A9
:104F30000E94AC071F92CF9320E83BE03F932F9352
:104F40000E9445088EE79BE00E94AC0785E69BE047
:104F50000E94AC078C2F81701F928F9322E63BE05A
:104F60003F932F930E9445088DB79EB780960FB64A
:104F7000F8949EBF0FBE8DBF80E69BE00E94AC07F9
:104F800089E49BE00E94AC07C1FB882780F91F924F
:104F90008F9326E43BE03F932F930E94450884E4DF
:104FA0009BE00E94AC0782E39BE00E94AC07C2FB3F
:104FB000882780F91F928F932FE23BE03F932F9336
:104FC0000E9445088DE29BE00E94AC078BE19BE0CC
:104FD0000E94AC07C3FB882780F91F928F9328E1BA
:104FE0003BE03F932F930E94450886E19BE00E949F
:104FF000AC078CE09BE00E94AC07C4FB882780F9DB
:105000001F928F9329E03BE03F932F930E94450826
:1050100087E09BE00E94AC0785EF9AE00E94AC0716
:10502000C5FB882780F91F928F9322EF3AE03F93C8
:105030002F930E94450880EF9AE00E94AC0784ED10
:105040009AE00E94AC07C6FB882780F91F928F93D5
:1050500021ED3AE03F932F930E9445088FEC9AE0B0
:105060000E94AC0787EC9AE00E94AC07C7FBCC27F4
:10507000C0F91F92CF9384EC9AE09F938F930E9484
:10508000450882EC9AE00E94AC078DB79EB74C961B
:105090000FB6F8949EBF0FBE8DBF1DC00E94901129
:1050A000892B79F00E9490119093BF018093BE01EB
:1050B0000E941F1780E090E00E948B118FE99EE014
:1050C00008C08091BE019091BF010E948B1184E9BC
:1050D0009EE00E94AC07C1E0F8C086EA9AE00E9418
:1050E000AC078FE89AE00E94AC0787E79AE00E943D
:1050F000AC078FE59AE00E94AC0785E49AE00E9435
:10510000AC078EE29AE00E94AC078EE09AE00E9423
:10511000AC0788EF99E00E94AC0787EE99E00E9407
:10512000AC078FEC99E00E94AC0785EB99E00E94F8
:10513000AC078CE999E00E94AC0783E899E00E94F3
:10514000AC078AE699E00E94AC0781E599E00E94ED
:10515000AC0780E399E00E94AC078EE099E00E94E2
:10516000AC0784EF98E0B5CF8091AF01C82FC17034
:1051700080FF09C08FE39EE00E94AC078091AF01E1
:10518000817F8E7F44C08DE29EE00E94AC078091BB
:10519000AF0181608093AF019ECF8091AF0181FB11
:1051A000CC27C0F991E0C927C0FB81F98093AF01FA
:1051B000CC2319F084E19EE025C08AEF9DE089CFE1
:1051C0008091AF0182FBCC27C0F991E0C927C0FBD9
:1051D00082F98093AF01CC2319F08FED9DE012C0CE
:1051E00083EC9DE076CF8091AF0183FBCC27C0F9A3
:1051F00091E0C927C0FB83F98093AF01CC2351F024
:105200008BEA9DE00E94AC078091AF0181608093A2
:10521000AF015BC082E99DE05CCF8BE79DE00E941F
:10522000AC0781E59DE00E94AC0780E19DE00E9413
:10523000AC0783EE9CE00E94AC0783EA9CE00E94EE
:10524000AC0785E79CE045CF8091B1019091B20118
:10525000A091B301B091B401BF93AF939F938F938B
:1052600081E69CE09F938F930E9445080F900F90DA
:105270000F900F900F900F902ECF81E890E00E943A
:10528000F1119FEF21EE84E0915020408040E1F742
:1052900000C0000080E090E00E94F1119FEF29E63D
:1052A00088E1915020408040E1F700C0000013CF1A
:1052B00080E003C08D5101C089530E9447260BCF67
:1052C00085E09CE00E94AC07C0E08C2FCF91089550
:1052D00080E0089580E00895CF93C82F8091C101A8
:1052E000813071F020F0823009F44EC05DC1A09190
:1052F0000C01B0910D018C91823209F057C107C0A9
:10530000A0910C01B0910D018C91823249F48C2F47
:105310000E946829811135C08C2F0E94872632C0D7
:105320008C2F0E946A2981112CC0C431F1F090F4B5
:10533000CB30A1F0C03101F50E94232489E698E02A
:105340000E94AC0785E698E00E94AC0782E080935B
:10535000C10117C0C93249F0C83371F40E94172443
:1053600086E998E00E94AC070CC082E898E00E94B1
:10537000AC071092C1011CC183E698E00E94AC0703
:1053800017C181E0817016C1C83228F5CE3108F00E
:10539000C0C0CB30A1F1D0F4C73009F0E8C08EE135
:1053A0008093130182E3809312018AE080931101BC
:1053B00084E18093100188E080930F0188E280935C
:1053C0000E018BE096E00E94AC07D6C0C33141F1DC
:1053D000C431C1F0CCC0CB3409F4BEC028F4C9320A
:1053E00089F0C83361F0C3C0C13509F4B3C0C23518
:1053F00009F4AEC0CE3409F0BAC06AE0B3C00E946E
:105400002324BAC01092C0018EE396E00E94AC073C
:105410008AE396E00E94AC0781E08093C101CAC094
:105420008EED95E00E94AC0789EC95E00E94AC07F8
:10543000809113011F928F9386EC95E09F938F9339
:105440000E94450884EC95E00E94AC078FEA95E045
:105450000E94AC07809112011F928F938CEA95E015
:105460009F938F930E9445088AEA95E00E94AC07BB
:1054700088E995E00E94AC07809111011F928F93FB
:1054800085E995E09F938F930E94450883E995E015
:105490000E94AC078FE795E00E94AC078091100155
:1054A0001F928F938CE795E09F938F930E944508FE
:1054B0008AE795E00E94AC0782E695E00E94AC077F
:1054C00080910F011F928F938FE595E09F938F93AB
:1054D0000E9445088DE595E00E94AC0783E495E0C5
:1054E0000E94AC0780910E011F928F9380E495E09B
:1054F0009F938F930E9445088EE395E00E94AC072E
:105500008DB79EB748960FB6F8949EBF0FBE8DBF5D
:1055100033C0CE51EC2FF0E0E85DFE4F80818093E8
:10552000C00185E296E00E94AC078091C0011F9205
:105530008F9382E296E09F938F930E94450880E2CA
:1055400096E00E94AC070F900F900F900F9014C040
:1055500061E003C061E006C06AE08091C0010E9482
:1055600089240AC08091C0010E947A2505C089E083
:1055700096E00E94AC0716C087E096E00E94AC0758
:105580008091C0011F928F9384E096E09F938F9348
:105590000E94450881E096E00E94AC070F900F90B2
:1055A0000F900F9081E006C01092C10180E002C010
:1055B00080E0E8CECF91089504D06894B1118DC0F9
:1055C000089570D088F09F5790F0B92F9927B75160
:1055D000A0F0D1F0660F771F881F991F1AF0BA95B7
:1055E000C9F712C0B13081F077D0B1E0089574C02E
:1055F000672F782F8827B85F39F0B93FCCF38695AD
:1056000077956795B395D9F73EF490958095709509
:1056100061957F4F8F4F9F4F0895E89409C097FB86
:105620003EF490958095709561957F4F8F4F9F4F79
:105630009923A9F0F92F96E9BB279395F6958795BD
:1056400077956795B795F111F8CFFAF4BB0F11F480
:1056500060FF1BC06F5F7F4F8F4F9F4F16C0882327
:1056600011F096E911C0772321F09EE8872F762F5D
:1056700005C0662371F096E8862F70E060E02AF09E
:105680009A95660F771F881FDAF7880F969587958A
:1056900097F9089557FD9058440F551F59F05F3FF3
:1056A00071F04795880F97FB991F61F09F3F79F044
:1056B00087950895121613061406551FF2CF4695C6
:1056C000F1DF08C0161617061806991FF1CF869548
:1056D0007105610508940895E894BB27662777272C
:1056E000CB0197F908950BD078C069D028F06ED01F
:1056F00018F0952309F05AC05FC01124EECFCADF1D
:10570000A0F3959FD1F3950F50E0551F629FF001D4
:10571000729FBB27F00DB11D639FAA27F00DB11D2D
:10572000AA1F649F6627B00DA11D661F829F2227B6
:10573000B00DA11D621F739FB00DA11D621F839F3D
:10574000A00D611D221F749F3327A00D611D231F13
:10575000849F600D211D822F762F6A2F11249F5761
:1057600050408AF0E1F088234AF0EE0FFF1FBB1F84
:10577000661F771F881F91505040A9F79E3F510523
:1057800070F014C0AACF5F3FECF3983EDCF386952F
:1057900077956795B795F795E7959F5FC1F7FE2BCE
:1057A000880F911D9695879597F9089597F99F67AA
:1057B00080E870E060E008959FEF80EC0895002499
:1057C0000A941616170618060906089500240A9466
:1057D00012161306140605060895092E0394000CEC
:1057E00011F4882352F0BB0F40F4BF2B11F460FF7B
:1057F00004C06F5F7F4F8F4F9F4F089597FB072E19
:1058000016F4009407D077FD09D00E94182C07FCED
:1058100005D03EF4909581959F4F089570956195C0
:105820007F4F0895EE0FFF1F0590F491E02D09942E
:10583000AA1BBB1B51E107C0AA1FBB1FA617B707B6
:1058400010F0A61BB70B881F991F5A95A9F78095D2
:105850009095BC01CD010895F999FECF92BD81BD0F
:10586000F89A992780B50895A8E1B0E042E050E0A9
:105870000C944F2C262FF999FECF1FBA92BD81BDF3
:1058800020BD0FB6F894FA9AF99A0FBE01960895C2
:105890000E943A2C272F0C943B2CDC01CB01FC01FD
:1058A000F999FECF06C0F2BDE1BDF89A319600B479
:0E58B0000D9241505040B8F70895F894FFCF84
:1058BE0005430A240B010BCD0A9A0A01A5012808FB
:1058CE00140A321E3F4D362053030603D002B00297
:1058DE003C0255026E028702010203040506070808
:0258EE000900AF
:00000001FF
